:020000040800F2
:1000000000000220A50C00088D09000891090008D5
:10001000AD090008AF090008B109000800000000A0
:10002000000000000000000000000000194F000860
:10003000B3090008000000006D4F0008CD4F000814
:10004000F50C0008F50C0008F50C0008F50C00088C
:10005000F50C0008F50C0008B5090008F50C0008BF
:10006000F50C0008F50C0008F50C0008F50C00086C
:10007000F50C0008F50C0008F50C0008F50C00085C
:10008000F50C0008F50C0008F50C0008F50C00084C
:10009000F50C0008F50C0008F50C0008F50C00083C
:1000A000F50C0008F50C0008F50C0008F50C00082C
:1000B000BD090008F50C0008F50C0008F50C000857
:1000C000F50C0008F50C0008F50C0008F50C00080C
:1000D000F50C0008C9090008F50C0008F50C00082B
:1000E000F50C0008F50C0008F50C0008F50C0008EC
:1000F000F50C0008F50C0008F50C0008F50C0008DC
:10010000F50C0008F50C0008F50C0008F50C0008CB
:10011000F50C0008F50C0008F50C0008F50C0008BB
:10012000F50C0008F50C0008F50C0008F50C0008AB
:10013000F50C0008F50C0008F50C0008F50C00089B
:10014000F50C0008F50C0008F50C0008D1A7020812
:10015000D5090008F50C0008F50C0008F50C00089E
:10016000F50C0008F50C0008F50C0008F50C00086B
:10017000F50C0008D9A70208F50C000800000000E3
:08018000F50C0008F50C000865
:1001900010B5054C237833B9044B13B10448AFF3C1
:1001A00000800123237010BDC80100200000000062
:1001B00008EB020808B5034B1BB103490348AFF332
:1001C000008008BD00000000CC01002008EB020800
:1001D00010F8012B11F8013B012A28BF9A42F7D0F1
:1001E000D01A7047034613F8012B002AFBD1181AC6
:1001F000013870470000000000000000000000000F
:1002000001F0FF01102A2BDB10F0070F08D010F8C7
:10021000013B013A8B422DD010F0070F42B3F6D1CB
:10022000F0B441EA012141EA014122F007047FF0E4
:1002300000070023F0E80256083C85EA010586EA3B
:10024000010685FA47F5A3FA87F586FA47F6A5FA77
:1002500087F68EB9EED1F0BC01F0FF0102F0070283
:1002600032B110F8013B013A83EA010313B1F8D12E
:100270000020704701387047002D06BF354603380F
:10028000073815F0010F07D1013015F4807F02BF48
:10029000013015F4C03F0130F0BC0138704700BF99
:1002A00053B94AB9002908BF00281CBF4FF0FF31DD
:1002B0004FF0FF3000F06AB9ADF1080C6DE904CEE3
:1002C00000F006F8DDF804E0DDE9022304B0704731
:1002D0002DE9F047089D0C46002B4ED194468C45E5
:1002E0008646B2FA82F262D94AB1C2F12003914045
:1002F00020FA03F30CFA02FC194300FA02FE4FEA5B
:100300001C471FFA8CF6B1FBF7F44FEA1E4307FBBC
:10031000141143EA014304FB06F199420AD91CEB8C
:10032000030304F1FF3080F01281994240F20F8103
:10033000023C6344591A1FFA8EF3B1FBF7F007FB36
:10034000101143EA014300FB06F69E420AD91CEB5A
:10035000030300F1FF3180F0FC809E4240F2F980FF
:10036000634402389B1B40EA044000211DB1D34086
:100370000022C5E90032BDE8F0878B4205D90DB1F6
:10038000C5E9000100210846F5E7B3FA83F1002929
:1003900046D1A34202D39042C0F0F080861A64EBAB
:1003A00003030120002DE6D0C5E90063E3E7002A3E
:1003B00040F09080A1EB0C044FEA1C481FFA8CF728
:1003C0000121B4FBF8F64FEA1E4308FB164443EA4A
:1003D000044307FB06F0984208D91CEB030306F11F
:1003E000FF3402D2984200F2CD8026461C1A1FFA32
:1003F0008EF3B4FBF8F008FB104443EA044300FB1F
:1004000007F79F4208D91CEB030300F1FF3402D227
:100410009F4200F2B0802046DB1B40EA0640A5E781
:10042000C1F120068B4022FA06F71F4320FA06FC92
:1004300004FA01F343EA0C03F44000FA01F8380C23
:100440004FEA1349B4FBF0FE1FFA87FC00FB1E4481
:1004500049EA04440EFB0CF9A14502FA01F20AD95B
:100460003C190EF1FF3A80F08480A14540F2818072
:10047000AEF1020E3C44A4EB09041FFA83F9B4FB6D
:10048000F0F300FB134449EA044403FB0CFCA445CD
:1004900007D93C1903F1FF3067D2A44565D9023B67
:1004A0003C4443EA0E40A0FB0293A4EB0C049C42A4
:1004B000CE469C4651D34ED055B1B8EB0E0364EBFB
:1004C0000C0404FA06F6CB401E43CC40C5E9006498
:1004D000002150E7C2F1200320FA03F10CFA02FCDC
:1004E00024FA03F394400C434FEA1C4800FA02FE3E
:1004F0001FFA8CF7B3FBF8F008FB1031230C43EA2A
:10050000014300FB07F1994208D91CEB030300F1FA
:10051000FF362CD299422AD9023863445B1AA4B21E
:10052000B3FBF8F108FB113344EA034401FB07F382
:10053000A34208D91CEB040401F1FF3613D2A342F5
:1005400011D902396444E41A41EA004139E704460A
:10055000F0E6084606E7C845AED2B9EB020E63EBFB
:10056000070C0138A8E73146EDE7034699E7304626
:10057000D4E7D6467FE7634402384DE70646234674
:1005800008460FE7023E634430E700BF704700BFF4
:1005900007B50B4B00220192196B41F480011963DE
:1005A0001B6B03F48003019311464420019B00F070
:1005B00019FC442003B05DF804EB00F045BC00BF1B
:1005C00000380240F0B514228BB00DEB0200002180
:1005D0002CF0C6FF0024324B00941A6B314F42F0CE
:1005E00004021A631A6B02F004020092009A01944A
:1005F0001A6B42F080021A631A6B02F080020192B9
:10060000019A02941A6B42F001021A631A6B02F00B
:1006100001020292029A03941A6B42F002021A63D8
:100620001A6B02F002020392039A04941A6B42F0CE
:1006300008021A631B6B03F0080322460493384632
:1006400006210125049B00F0ADFE4FF48813CDE98F
:10065000055305A9022338460793062600F0C4FD7A
:1006600005A93846CDE90565CDE9075400F0BCFD84
:100670004FF440721223CDE9052303210423CDE971
:1006800008130948079505A900F0AEFD224621464A
:10069000304600F0A7FB304600F0D6FB0BB0F0BDB3
:1006A00000380240000002400004024010B594B03F
:1006B000102200210AA82CF053FF1422002103A8C5
:1006C0002CF04EFF204B002101911A6C42F0805219
:1006D0001A641B6C03F080530193019B1B4B029126
:1006E0001A6842F480421A601B6803F48043029344
:1006F000029B01214FF480330224CDE908134FF40B
:1007000080031920CDE90E434FF4A873CDE91003FF
:10071000072308A81294139300F05EFE08B172B686
:10072000FEE70F23CDE9033405904FF4A0524FF4B8
:100730008053052103A8CDE9062301F029F808B16B
:1007400072B6FEE714B010BD0038024000700040E1
:1007500008B500F0F5FAFFF7A9FFFFF733FFFFF741
:1007600017FF00F0D9F900F0F3F900F09BF800F062
:100770007BF903F0C7FCFEE707B54FF6FF73019066
:10078000012201A9034801F082FC019803B05DF841
:1007900004FB00BFF4070020F7B5124F05460C46D6
:1007A0008E18B44205D1284603B0BDE8F0402AF0C7
:1007B00081B82378F95C224601F0030175B901295B
:1007C00001D12033237013788DF8073001220DF109
:1007D0000701284601342AF0AFF8E2E70229F2D1F6
:1007E000203BEFE7E634030830B5002591B0ECB2CA
:1007F00020462AF03BF878B14022694620462AF08C
:1008000041F86946024604460020FFF7C5FF22462C
:1008100069460120FFF7C0FF0DB111B030BD0125C1
:10082000E5E7000010B50748012100F0B5FD0128FB
:10083000044605D10348042100F0B9FD024B1C70A9
:1008400010BD00BF00000240A406002008B5064B02
:10085000834208D101201EF095FE00F08BFA034A76
:1008600013680133136008BD0407002068AB012042
:10087000034B0360034B0B6080231360704700BF82
:100880004406002044040020034B0360034B0B602C
:1008900080231360704700BFE4030020E4010020C0
:1008A00072B6FEE70E480F4A08B54FF48273C0E9EE
:1008B000002300234FF40072C0E90233C0E904337F
:1008C000C0E90623C0E9083383620A23C36201F04A
:1008D00019F818B1BDE80840FFF7E2BF08BD00BF36
:1008E000A80600200038004010B5044688B0142245
:1008F000002103A82CF034FE2268144B9A4223D125
:1009000003F50033002101911A6C114842F4804232
:100910001A641A6C02F480420192019A02911A6BD5
:1009200042F002021A631B6B03F002030293029B64
:100930004FF4604202230321CDE903230523CDE9CF
:10094000061303A900F050FC08B010BD00380040A9
:100950000004024082B00C4B002100915A6C42F41A
:1009600080425A645A6C02F480420092009A0191CB
:100970001A6C42F080521A641B6C03F0805301938E
:10098000019B02B0704700BF00380240FEE7000044
:1009900010B5054C4FF4C803013BFDD102212046A0
:1009A00000F005FDF6E700BF00000240FEE7FEE7AD
:1009B000FEE77047012000F003BD0000014801F090
:1009C00069B800BF04070020014801F015BC00BF52
:1009D000F4070020014800F049BB00BF4C0700208D
:1009E00070B50D4614460E46731B9C4201DC204632
:1009F00070BD16F8010BFFF7BFFEF5E74FF0FF30B3
:100A000070474FF400534B6000207047012070473F
:100A1000002070470B4A116810B5034609B90A490E
:100A20001160106809490A4C0344091B8B4206D91E
:100A30002CF0E4FD0C2303604FF0FF3010BD136079
:100A4000FCE700BF0007002070B101200000022079
:100A500000080000034AD2F8883043F47003C2F85B
:100A60008830704700ED00E07FB51022002102A819
:100A70002CF076FD174853224FF080410023C0E947
:100A8000001240F2E732CDE90033C0E9032383606E
:100A90008023836101F0FEF808B1FFF701FF4FF4F6
:100AA00080530C48029302A901F02AF908B1FFF71C
:100AB000F7FE002307486946CDE9003301F0BAF993
:100AC00008B1FFF7EDFE034800F0A6FF07B05DF8A0
:100AD00004FB00BF040700200368B3F1804F07B593
:100AE00016D1002203F50E330192196C41F0010179
:100AF00019641B6C03F00103019311461C20019B38
:100B000000F070F91C2003B05DF804EB00F09CB914
:100B100003B05DF804FB00000B480C4A08B54FF425
:100B2000E133C0E9002300230C22C0E90233C0E90D
:100B300005230361C36101F07BFA18B1BDE80840E9
:100B4000FFF7AEBE08BD00BFF40700200010014053
:100B50000B480C4A08B54FF4E133C0E900230023E9
:100B60000C22C0E90233C0E905230361C36101F02F
:100B70005FFA18B1BDE80840FFF792BE08BD00BF9C
:100B8000AC0700200014014070B514228AB006465C
:100B900000210DEB02002CF0E3FC33683A4A93424B
:100BA0004BD13A4B002501955A6C42F010025A6421
:100BB0005A6C02F010020192019A02951A6B42F0EF
:100BC00001021A631B6B03F001030293029B4FF4B3
:100BD000C0600223CDE90503032407232C4805A99F
:100BE000CDE9084300F000FB2A4CDFF8B4C04FF019
:100BF0000063C4E900C34FF48063C4E904352046B0
:100C00004FF48033C4E90255C4E90655C4E90835F8
:100C100000F05EF908B1FFF743FE002211462520DF
:100C2000F463A66300F0DEF8252000F00DF9184803
:100C3000042100F0BCFB0AB070BD174A9342FAD100
:100C4000124B1648002103915A6C42F020025A645C
:100C50005A6C02F020020392039A04911A6B42F03C
:100C600004021A631B6B03F004030493049BC02269
:100C70000223CDE9052303210823CDE9081305A9A3
:100C800000F0B2FAD7E700BF001001400038024080
:100C9000000002404C070020001401400008024000
:100CA00088640240DFF834D0FFF7D4FE0C480D49C9
:100CB0000D4A002302E0D458C4500433C4188C42B7
:100CC000F9D30A4A0A4C002301E013600432A2421D
:100CD000FBD32CF099FCFFF73BFD7047000002208E
:100CE00000000020C8010020E8390308C8010020E6
:100CF0006CB10120FEE7000038B50E4B1A784FF4B6
:100D00007A73B3FBF2F30C4A05461068B0FBF3F0BC
:100D100000F0A8F8044658B90F2D09D80246294614
:100D20004FF0FF3000F05EF8044B20461D6038BDE8
:100D30000120FCE704000020000000200800002043
:100D400008B50B4B1A6842F400721A601A6842F434
:100D500080621A601A6842F480721A60032000F000
:100D60002FF80F20FFF7C8FFFFF7F4FD002008BDA4
:100D7000003C0240034A044B11681B780B4413608B
:100D8000704700BF3C08002004000020014B186899
:100D9000704700BF3C08002038B50446FFF7F6FF57
:100DA000631C1CBF054B1B78054618BFE418FFF7F2
:100DB000EDFF431BA342FAD338BD00BF040000205F
:100DC0000749CA6822F4E0620302120403F4E063F4
:100DD000120C134343F0BF6343F40033CB607047FE
:100DE00000ED00E0164B30B5DC68C4F30224C4F11A
:100DF0000703251D042B28BF0423062D4FF0FF35C4
:100E00008CBF033C002405FA03F321EA0303A54049
:100E100022EA0502A340002843EA0203ACBF00F126
:100E20006040084A4FEA0313B8BF00F00F00DBB27E
:100E3000AABF00F56140135480F8003330BD00BFF5
:100E400000ED00E014ED00E0002807DB044A410952
:100E5000012300F01F00834042F82130704700BF9B
:100E600000E100E00138B0F1807F0BD24FF0E023C9
:100E7000054A5861F02182F823100020072298616A
:100E80001A6170470120704700ED00E04FF0E02349
:100E900004281A690CBF42F0040222F004021A610D
:100EA00070470000036810B5084C0246D9B21039EB
:100EB0001820B1FBF0F0205CD06523F47F7020F0A7
:100EC00003005F2988BF0430906510BD52EB020813
:100ED00070B50446FFF75AFF0546002C60D0022388
:100EE00084F835302268002384F83430136823F006
:100EF0000103136022681368D8072ED413683248A0
:100F0000A1691840D4E901352B43E5682B432569D5
:100F10002B4365692B43E5690B432B43256A2B4320
:100F20000343606A042802BFD4E90B5635432B43C0
:100F300013605369042823F0070343EA000335D103
:100F4000A06AE56A03438DB391B9012820D030F03F
:100F500002012BD1E90129D51DE0FFF717FF401B46
:100F60000528C7D920230320636584F8350070BDA8
:100F7000B1F5005F16D1032818D801A151F820F06F
:100F8000970F0008550F0008970F0008910F0008F1
:100F9000B5F1C07F0AD140236365012384F8353061
:100FA0000120E4E70228F6D90328D3D05361204674
:100FB000FFF778FFE26D3F23934083600020012319
:100FC000606584F83530D2E73F8010F070B5044694
:100FD000866DFFF7DBFE94F83530022B054606D010
:100FE000802363650120002384F8343070BD2368BA
:100FF0001A6822F016021A605A6922F080025A61B9
:10100000226C0AB9A26C1AB11A6822F008021A609E
:101010001A6822F001021A602368186810F00100B3
:1010200007D1E26D3F239340B360012384F835304C
:10103000D9E7FFF7ABFE401B0528EDD9202303209D
:10104000636584F83500CEE790F83530022B03D085
:1010500080234365012070470268052380F83530FE
:10106000136823F00103136000207047F7B50023D5
:1010700001935C4B856D1F68C36D2E6808229A40F2
:10108000324204460CD001680868400708D5086859
:1010900020F004000860AA60626D42F001026265FF
:1010A00001229A40324208D021684969090641BFAD
:1010B000AA60626D42F00202626504229A403242E6
:1010C00008D021680968880741BFAA60626D42F0B4
:1010D0000402626510229A40324210D023681968D7
:1010E00009070CD5AA601A68500337D51B68190385
:1010F00001D4236C00E0A36C0BB120469847E16D4E
:1011000020228A4032423AD023681868C60636D573
:10111000AA6094F83520052A1A6827D122F0160211
:101120001A605A6922F080025A61226C0AB9A26CD4
:101130001AB11A6822F008021A603F238B40AB6094
:10114000012384F83530002384F83430236D002BDC
:1011500045D0204603B0BDE8F04018471A68D205D4
:101160005EBF1A6822F008021A60C2E7500327D552
:101170001B68190331D4636C0BB120469847636D2B
:101180006BB3636DDA0719D522684FF41653B7FBBA
:10119000F3F7052384F83530136823F00103136057
:1011A000019B0133BB42019302D81368DB07F7D4DC
:1011B000012384F83530002384F83430E36CC6E72B
:1011C0001A6812F4807208D1196821F010011960B0
:1011D000012384F8353084F83420E36BCCE703B086
:1011E000F0BD00BF000000202DE9F74FDFF8A4910B
:1011F000664A00230D6801249C4004EA0506AC43BE
:1012000040F0AF804D68032705F003044FEA430820
:1012100007FA08FC671E012F6FEA0C0C34D88768A8
:1012200007EA0C0ECF6807FA08F747EA0E0787604F
:10123000476827EA060EC5F300179F4047EA0E07E6
:101240004760C76807EA0C0E8F6807FA08F747EA95
:101250000E07022CC76019D14FEAD30A00EB8A0AA5
:1012600003F0070BDAF820704FEA8B0B4FF00F0EEC
:101270000EFA0BFE27EA0E0E0F6907FA0BF747EA84
:101280000E07CAF8207001E0032CDAD1076804FACF
:1012900008F407EA0C073C4315F4403F046060D0B3
:1012A00000240194D9F8444044F48044C9F84440EF
:1012B000D9F8444023F0030707F1804704F4804441
:1012C00007F59C37019403F0030C019CD7F808E064
:1012D0004FEA8C0C0F2404FA0CF42EEA040E2C4C6A
:1012E000A04245D004F58064A04243D004F5806458
:1012F000A04241D004F58064A0423FD004F5806450
:10130000A0423DD004F58064A0423BD004F5806447
:10131000A04239D004F58064A04214BF08240724F9
:1013200004FA0CF444EA0E04BC609468F74315F424
:10133000801F0CBF3C4034439460D46815F4001FF8
:101340000CBF3C403443D460546815F4003F0CBFDC
:101350003C40344354601468ED0354BF3C40344374
:1013600014600133102B7FF445AF03B0BDE8F08F5C
:101370000024D5E70124D3E70224D1E70324CFE7F3
:101380000424CDE70524CBE70624C9E7003C01404F
:1013900000000240003802400369194214BF0120D6
:1013A000002070470AB1816170470904FBE7436977
:1013B00001EA030221EA030141EA02418161704727
:1013C000044A5169014208B502D05061FFF72AFA78
:1013D00008BD00BF003C01402DE9F341044640B385
:1013E0000368DE0710D423689D075BD423681907C0
:1013F00000F19D8023685A0700F1BD80A369002B8E
:1014000040F0248100202CE08D4B9A6802F00C0201
:10141000042A07D09A6802F00C02082A0BD15B68F4
:10142000590208D5864B1B689A03DCD56368002BEC
:10143000D9D1012015E06368814DB3F5803F13D108
:101440002B6843F480332B60FFF7A0FC7C4E0546ED
:1014500033689B03C7D4FFF799FC401B6428F7D976
:10146000032002B0BDE8F081B3F5A02F04D12B68B2
:1014700043F480232B60E3E72A6822F480322A6059
:101480002A6822F480222A60002BDDD1FFF77EFC3F
:1014900006462B689F03A6D5FFF778FC801B6428BF
:1014A000F7D9DDE7664B9A6812F00C0F07D09A68FF
:1014B00002F00C02082A11D15B685D020ED4604A6A
:1014C0001368990702D5E368012BB2D1136821692B
:1014D00023F0F80343EAC103136087E7E268594B3E
:1014E000B2B101221A60FFF751FC554D06462B6838
:1014F0009B0707D52B68226923F0F80343EAC20350
:101500002B6073E7FFF742FC801B0228EFD9A7E7A7
:101510001A60FFF73BFC4A4E054633689F077FF58C
:1015200065AFFFF733FC401B0228F6D998E76269E4
:10153000444B82B10122C3F8802EFFF727FC404EB6
:101540000546736F9B073FF555AFFFF71FFC401B28
:101550000228F6D984E7C3F8802EFFF717FC384E2F
:101560000546736F9F077FF545AFFFF70FFC401BE4
:101570000228F6D974E7324B1A6C12F0805228D147
:1015800001921A6C42F080521A641B6C03F0805373
:101590000193019B01272C4D2B68D8051BD5A3680F
:1015A000274D012B27D12B6F43F001032B67FFF74A
:1015B000EDFB234E054641F28838336F9A0739D543
:1015C000002F3FF41BAF1E4A136C23F080531364AB
:1015D00014E70027DFE72B6843F480732B60FFF7E5
:1015E000D5FB06462B68D905D9D4FFF7CFFB801B66
:1015F0000228F7D934E7052B04D12B6F43F00403FD
:101600002B67D0E72A6F22F001022A672A6F22F0A7
:1016100004022A67002BCAD1FFF7B8FB41F28838D1
:1016200006462B6F9B07CBD5FFF7B0FB801B4045D1
:10163000F7D915E7FFF7AAFB401B4045BDD90FE7D7
:10164000003802400000474200700040374DAA6851
:1016500002F00C02082A3ED0022B354B4FF000025C
:101660001A662BD1FFF792FB06462B6899011FD40F
:10167000D4E907321343626A43EA8213E26A43EA17
:101680000263A26A5208013A43EA02436B60284BA4
:10169000264D01221A66FFF779FB04462B689A0152
:1016A0003FF5B0AEFFF772FB001B0228F6D9D7E674
:1016B000FFF76CFB801B0228D7D9D1E6FFF766FB4A
:1016C00004462B689B017FF59DAEFFF75FFB001B77
:1016D0000228F6D9C4E6012B3FF4ABAE6B68E26991
:1016E00003F4800191427FF4A4AE216A03F03F022B
:1016F0008A427FF49EAE616A47F6C0721A40B2EB2E
:10170000811F7FF496AEA26A520803F44031013A79
:10171000B1EB024F7FF48DAEE26A03F07063B3EB7E
:10172000026F14BF012000209BE600BF003802407A
:1017300000004742134908B58B6803F00C03042BE3
:101740001CD0082B1CD14A684B68496813F48003ED
:1017500014BF0D480D48C1F3881118BF002302F0D3
:101760003F02A1FB0001FEF79BFD064B5B68C3F344
:10177000014301335B00B0FBF3F008BD0248FCE716
:101780000248FAE70038024040787D010024F40066
:101790002DE9F0410D46044610B90120BDE8F08165
:1017A000434B1A6802F007028A4228D321688F0748
:1017B0002DD4C80740D43E4B1A6802F00702AA4253
:1017C00065D8226851076BD4130707D5394A2169B8
:1017D000936823F4604343EAC1039360FFF7AAFFD1
:1017E000344B354A9B68C3F30313D35CD840334B67
:1017F0001860334B1868FFF77FFA0020CEE7CAB2B3
:101800001A701B6803F007038B42C6D1CEE7294B41
:1018100011F0040F1EBF9A6842F4E0529A600E075E
:1018200042BF9A6842F460429A609A68A06822F0C7
:10183000F00202439A60BCE762681E4B012A1CD189
:101840001B6813F4003FA8D01A4EB36823F00303BB
:101850001343B360FFF79AFA41F288380746B3683A
:10186000626803F00C03B3EB820FA4D0FFF78EFA8B
:10187000C01B4045F3D9032090E7911E01291B6846
:1018800002D813F0007FDEE713F0020FDBE7EAB2C5
:101890001A701B6803F00703AB427FF47EAF90E73A
:1018A0000449E0688B6823F4E05303438B608BE7C3
:1018B000003C02400038024042EB020800000020D9
:1018C00008000020044B054A9B68C3F38223D35CC5
:1018D000034A1068D8407047003802403AEB0208CB
:1018E00000000020044B054A9B68C3F34233D35CDD
:1018F000034A1068D8407047003802403AEB0208AB
:101900000000002010B50446002855D0436A002B83
:101910004ED14268B2F5827F00D0C3610023A3623A
:1019200094F8513003F0FF0223B984F85020204688
:10193000FEF7DAFF2168A068A269022384F851301B
:101940000B6823F040030B60636800F4044003F469
:1019500082730343E06800F400600343206900F0F1
:1019600002000343606900F00100034302F40070C9
:101970000343E06900F038000343206A00F0800070
:101980000343A06A00F4005003430B60636A120C27
:1019900003F0100302F004021A434A60CB6923F4F7
:1019A0000063CB6100200123606584F8513010BDD5
:1019B0000023C0E90433B1E70120F8E770B50E4613
:1019C0001546044628B390F8493003F0FF021BB9CE
:1019D00080F8482000F0A6FE04F10801206800F01D
:1019E00055FDA2682068314600F082FD236BA26895
:1019F0006068294600F09AFD2268A16852F82130FB
:101A000043F0010342F82130012384F849300020DB
:101A100070BD0120FCE7000090F83D30012B30D173
:101A2000022380F83D300368DA6842F00102DA6090
:101A3000154A93421AD0B3F1804F17D0A2F57C42D9
:101A4000934213D002F5806293420FD002F5806278
:101A500093420BD002F57842934207D002F57052C0
:101A6000934203D0A2F59432934204D19A6802F0D3
:101A70000702062A03D01A6842F001021A60002009
:101A800070470120704700BF000001407047704759
:101A900070477047036870B5DD681E69B10704467A
:101AA0000DD5AA070BD56FF002021A610122027749
:101AB0009B699B0769D0FFF7EAFF00232377710733
:101AC00010D56A070ED523686FF004021A6102224E
:101AD00022779B6913F4407F20465CD0FFF7D7FF45
:101AE0000023237733070FD528070DD523686FF020
:101AF00008021A6104222277DB699907204650D038
:101B0000FFF7C5FF00232377F20610D5EB060ED5AD
:101B100023686FF010021A6108222277DB6913F440
:101B2000407F204643D0FFF7B2FF00232377F00722
:101B300008D5E90706D523686FF001021A6120462F
:101B4000FEF784FE320608D52B0606D523686FF013
:101B500080021A61204600F0ACF9700608D56906CB
:101B600006D523686FF040021A612046FFF791FF07
:101B7000B20622D5AB0620D523686FF0200220469E
:101B80001A61BDE8704000F093B9FFF77FFF20466F
:101B9000FFF77EFF91E7FFF779FF2046FFF778FF19
:101BA0009EE7FFF773FF2046FFF772FFAAE7FFF7F4
:101BB0006DFF2046FFF76CFFB7E770BD334A03683F
:101BC000904212D0B0F1804F0FD0A2F57C429042EB
:101BD0000BD002F58062904207D002F580629042FD
:101BE00003D002F57842904219D14A6823F070037D
:101BF0001343264A904229D0B0F1804F26D0A2F557
:101C00007C42904222D002F5806290421ED002F5C2
:101C1000806290421AD002F57842904216D01C4A57
:101C2000904213D002F5806290420FD002F580629C
:101C300090420BD0A2F59832904207D002F5806214
:101C4000904203D002F58062904203D1CA6823F427
:101C5000407313434A6923F08003134303608B6886
:101C6000C3620B688362094B984203D003F580631B
:101C7000984201D10B690363012343610369DB07C8
:101C800042BF036923F00103036170470000014074
:101C90000040014010B5044630B390F83D3003F0E9
:101CA000FF021BB980F83C20FEF716FF02232068D4
:101CB00084F83D30211DFFF781FF012384F8463071
:101CC000002084F83E3084F83F3084F8403084F8B7
:101CD000413084F8423084F8433084F8443084F84A
:101CE000453084F83D3010BD0120FCE710B5846814
:101CF0000A4324F47F4442EA03222243826010BD57
:101D000038B590F83C30012B04464FF0020000F04B
:101D10008E8084F83D000122206884F83C2083688E
:101D200023F47F4323F0770383600B68602B4FD04D
:101D300032D8402B64D016D8202B0DD00AD833F0DF
:101D4000100109D0012384F83D30002384F83C3091
:101D5000104638BD302BF5D1826822F07002134353
:101D600043F0070328E0502BECD14A68CD68016AA4
:101D7000036A23F001030362836921F00A0123F05F
:101D8000F00343EA05130A4383610262836823F088
:101D9000700343F057030FE0B3F5805F0DD0B3F548
:101DA000005F0CD0702BCDD1CB68D1E90121FFF7BA
:101DB0009DFF836843F0770383600022C2E7CB680E
:101DC000D1E90121FFF792FF836843F48043F3E7F1
:101DD000036A026A4D68C96822F0100202628269D1
:101DE00023F0A00322F4704243EA051342EA0132D1
:101DF00082610362836823F0700343F06703DBE7CB
:101E00004A68CD68016A036A23F0010303628369AB
:101E100021F00A0123F0F00343EA05130A4383612A
:101E20000262836823F0700343F04703C4E702466D
:101E30008EE7000030B590F83C30012B02464FF0A1
:101E4000020032D0136882F83D005C680D68986823
:101E500024F070042C435C60144CA3421AD0B3F1FC
:101E6000804F17D0A4F57C44A34213D004F58064BE
:101E7000A3420FD004F58064A3420BD004F578444C
:101E8000A34207D004F57054A34203D0A4F59434C0
:101E9000A34204D1496820F08000014399600123E6
:101EA000002082F83D3082F83C0030BD0000014047
:101EB00070477047026802F10C0353E8003F23F4B7
:101EC00090730C3242E8003102680029F2D102F12D
:101ED000140353E8003F23F0010302F1140C4CE813
:101EE00000310029F3D1036B012B0BD102F10C035C
:101EF00053E8003F23F0100302F10C0C4CE80031D2
:101F00000029F3D1202380F8423000230363704777
:101F10000268C16838B5136923F440530B43136159
:101F2000054683680069D168034368690343E8692B
:101F300021F4164121F00C0103430B43D360536994
:101F4000A96923F440730B4353611F4B9A4203D09A
:101F500003F580639A4224D1FFF7C4FCEA69192192
:101F6000B2F5004FD5E90043A0FB01011CD1DA18FE
:101F70004FF0000545EB0503FEF792F96422B0FB34
:101F8000F2F102FB1103DB003233B3FBF2F303F097
:101F900007025B0002EB011203F4F8731344A36021
:101FA00038BDFFF78FFCD9E79A009B0FFEF778F951
:101FB0006422B0FBF2F102FB11031B013233B3FBCD
:101FC000F2F303EB0113EAE700100140F7B5054611
:101FD0000C4617461E462A68136834EA030301D1EB
:101FE000002021E0701CF7D0FEF7D0FEC01B864217
:101FF0001CD3DEB12B68DA685107ECD5802CEAD00F
:10200000402CE8D01A681207E5D5002401941A681C
:1020100001925B6801932846019BFFF74BFF082361
:102020006B6485F84040012003B0F0BD0320FBE75E
:1020300010B5044648B390F8413003F0FF021BB9D5
:1020400080F84020FEF7A0FD2268242384F8413068
:10205000D36823F40053D3602046FFF759FF236869
:102060001A6922F490421A615A6922F02A025A61CE
:10207000DA6842F40052DA6000202023606484F8B9
:10208000413084F84230606310BD0120FCE72DE947
:10209000F843984690F84130202B04460E461746E8
:1020A0003FD100293FD0002A3DD02123002545649F
:1020B00080F84130FEF76AFEA368A784B3F5805F1D
:1020C0008146E78403D123690BB935461E46E38C6C
:1020D0009BB253B943464A4640212046FFF776FF5C
:1020E000202350B984F841300AE043464A46802113
:1020F0002046FFF76BFF28B1202384F841300320EE
:10210000BDE8F88322684EB935F8023BC3F30803F3
:102110005360E18C013989B2E184D8E716F8013BBC
:10212000F6E70220ECE70120EAE7704770477047C6
:1021300008B5806B0023C385C384FFF7F8FF08BD93
:10214000704790F84230222B07B542D1816802686F
:10215000836AB1F5805F3FD1016900293FD15268A0
:10216000C2F3080223F8022B8362C38D013B9BB2AA
:10217000C385002B2DD10268D16821F02001D160E8
:10218000D16821F48071D160516921F00101516160
:10219000202280F842204363026B012A026828D182
:1021A000036302F10C0353E8003F23F0100302F134
:1021B0000C0C4CE800310029F3D11368DB0605D57F
:1021C00001911368019353680193019B818DFFF77F
:1021D000B7FF03B05DF804FB39B9016929B952684A
:1021E000D2B21A70836A0133BEE7526802F07F02EE
:1021F000F7E7FFF79BFFECE703681A6873B516076C
:10220000D9685D69044608D1960668D58D0666D5FD
:1022100002B0BDE87040FFF794BF05F0010001F483
:10222000907505435BD0D60705D5CD0542BF636CDD
:1022300043F001036364530704D518B1636C43F0A2
:1022400002036364960704D518B1636C43F004037A
:102250006364150707D501F0200303431EBF636CB9
:1022600043F008036364636C002B32D0920604D5FC
:102270008B0602D52046FFF764FF26687369626CFF
:1022800003F0400302F0080253EA0205204622D080
:10229000FFF710FE73695E0618D5226802F1140379
:1022A00053E8003F23F04003143242E80031002994
:1022B000F3D1E06B50B1744B0365FEF7C5FE40B13E
:1022C000E06B036D02B0BDE8704018472046FFF791
:1022D0002EFF02B070BDFFF72AFF6564F9E7206B9F
:1022E000012840F09580D50640F19280C80640F163
:1022F0008F80002201921A6801925A680192019A15
:102300005A6952064ED5E16B0A68526892B2002AA9
:10231000DFD0A08D9042DCD9E285CA69B2F5807F1A
:1023200036D003F10C0252E8002F22F4807203F140
:102330000C0040E800210029F3D103F1140252E817
:10234000002F22F0010203F1140040E800210029CF
:10235000F3D103F1140252E8002F22F0400203F1FE
:10236000140040E800210029F3D1202284F8422003
:10237000216303F10C0252E8002F22F0100203F156
:102380000C0040E800210029F3D1E06BFEF71EFEAF
:1023900002236363E38DA18DC91A89B22046FFF73A
:1023A000CFFE96E7E28DE08DA18D80B292B200283B
:1023B0008FD0891A89B200298BD003F10C0252E820
:1023C000002F22F4907203F10C0545E8002000284C
:1023D000F3D103F1140252E8002F22F0010203F1BD
:1023E000140545E800200028F3D1202284F842207B
:1023F000206303F10C0252E8002F22F0100203F1D7
:102400000C0545E800200028F3D102236363C5E7EB
:10241000160628D50D0626D594F84120212A7FF4EA
:1024200058AFA168226AB1F5805F17D12169A9B9B7
:1024300032F8021BC1F3080159602262E28C013AB2
:1024400092B2E284002A7FF444AFDA6822F080027C
:10245000DA60DA6842F04002DA603AE7511C216241
:1024600012785A60EAE750067FF533AF4A067FF5E7
:1024700030AFDA6822F04002DA60202384F841307D
:102480002046FFF752FE24E7312100080A6850F881
:10249000223023F0010370B58C6840F822304B687D
:1024A000CE6850F82250234333430E6933434E69BC
:1024B0003343CE6933430E6A33434E6A33438E6AE5
:1024C0003343CE6A33430E6B33438E69C96B334358
:1024D0000B43064929400B43A4F108014C424C41EF
:1024E00043EA841340F82230002070BD8000F0FFE2
:1024F0000B6810B58C6923434C6843EA04138C685D
:1025000043EA0423CC6800EB820243EA04430C69EB
:1025100049695068013C43EA0453023943EA0163C4
:1025200000F040410B435360002010BDB3F5804FD5
:1025300030B514D18D690B6850F822402B434D689B
:1025400043EA05138D68C96843EA052343EA01435A
:10255000044921400B4340F82230002030BD6FF089
:102560007043F8E70000F0CF82B0074AADF80600EC
:10257000BDF806309BB2ADF80630BDF806309BB210
:10258000A2F8FE3002B0704700FF076082B0074A31
:10259000ADF80600BDF806309BB2ADF80630BDF8C8
:1025A00006309BB2A2F8003102B0704700FF07600E
:1025B000054BB3F8003182B09BB2ADF80630BDF8E0
:1025C000060080B202B0704700FF0760024B1A8914
:1025D000024BA3F8FE2070474008002000FF076070
:1025E00038B50B4D04466889FFF7BEFF200AFFF798
:1025F000CDFFE0B2FFF7CAFFA889FFF7B5FF080AD1
:10260000FFF7C4FFBDE83840C8B2FFF7BFBF00BF47
:102610004008002010B533498B79012B07D10728DA
:102620000ED8DFE800F01B271F1D250D21230138E0
:10263000062805D8DFE800F01C1A181614121E0030
:1026400000238A8845F21050824215D047F29670D6
:10265000824201D143F0080336220FE0A023F0E7C5
:102660006023EEE72023ECE7C023EAE74023E8E716
:102670008023E6E7E023E4E74FF458521A48A0F835
:10268000FE20A0F800319B060A88488804D58242C3
:1026900004D208804A8001E08242FAD84889FFF7D4
:1026A00063FF0020FFF772FFFFF770FF0C88013C0B
:1026B000C4F30F20FFF76AFFE0B2FFF767FF8889D6
:1026C000FFF752FF0020FFF761FFFFF75FFF498828
:1026D0000139C1F30F20FFF759FFBDE81040C8B220
:1026E000FFF754BF4008002000FF07600C4B002894
:1026F00098714FF02C0018814FF02A0058814FF04C
:102700002B000BBF4FF4A0714FF4F0714FF4F07237
:102710004FF4A0729881002019805A80FFF77ABF89
:102720004008002010B58AB02C4B2D4C002200929E
:10273000996B41F001019963996B01F001010091DE
:1027400000990192196B41F008011963196B01F0AE
:102750000801019101990292196B41F0100119636E
:10276000196B01F01001029102990392196B41F06B
:1027700020011963196B01F0200103910399049260
:102780001A6B42F040021A631B6B03F04003049380
:102790004CF23372049B0223CDE90523012103236C
:1027A000CDE9071320460C2305A90993FEF71CFD6C
:1027B0004FF6807305A90B480593FEF715FD4FF4FE
:1027C000005305A920460593FEF70EFD802305A9B9
:1027D00020460593FEF708FD0AB010BD0038024000
:1027E000000C0240001002402DE9F843141A5D1A53
:1027F00001340135114F81468846A4B2ADB200269E
:10280000AE4201D3BDE8F88306EB080189B2484621
:10281000FFF7E6FEFFF7DAFE089A06FB04F302EB89
:102820004303002291B28C4202D80136B6B2E7E7E8
:1028300033F8021BA7F800110132F3E700FF07602D
:102840002DE9F04395B000243D4B00941A6B3D48B0
:10285000DFF8FC9042F008021A631B6B03F00803D8
:1028600001254FF48056009301A90327CDE90165A6
:10287000009B03950497FEF7B7FC4FF400633148C3
:10288000019301A9FEF7B0FC2F480C944FF02043B0
:10289000036003F58273C0E901344FF48043C0E95B
:1028A0000C344FF48013C3630F23CDE9063409239E
:1028B0000DAA06A9C0E90946CDE90D344FF010086C
:1028C00008233C260F93C0E90344C0E90584C46192
:1028D000C4628463089610941394FFF76FF8322053
:1028E000FEF75AFAC9F8AC520A20FEF755FAC9F8B1
:1028F000AC423220FEF750FAC9F8AC52C820FEF7BD
:102900004BFAD420FFF730FEFFF752FEFFF750FEE0
:10291000FFF74EFE0146FFF74BFEDFF8389040EA26
:10292000012189B20948A9F804102AF015FDB9F867
:10293000042045F210339A4240F032870CE000BF89
:1029400000380240000C0240500800205AEB0208F8
:102950000080414240080020ED20FFF705FE284698
:10296000FFF714FEFE20FFF711FEEE20FFF7FCFD3F
:10297000DE20FFF70BFE2120FFF708FEF120FFF716
:10298000F3FD2846FFF702FEDF20FFF7EDFD40468E
:10299000FFF7FCFDC420FFF7E7FD8F20FFF7F6FDF2
:1029A000C620FFF7E1FD2046FFF7F0FDE220FFF72C
:1029B000EDFDFFF7EBFDFFF7E9FDBF20FFF7D4FDCD
:1029C000AA20FFF7E3FDB020FFF7CEFD0D20FFF7B3
:1029D000DDFD2046FFF7DAFD0D20FFF7D7FD20468D
:1029E000FFF7D4FD1120FFF7D1FD2046FFF7CEFD04
:1029F0001920FFF7CBFD2046FFF7C8FD2120FFF788
:102A0000C5FD2046FFF7C2FD2D20FFF7BFFD204684
:102A1000FFF7BCFD3D20FFF7B9FD2046FFF7B6FDEF
:102A20005D20FFF7B3FD2046FFF7B0FD5D20FFF707
:102A3000ADFD2046FFF7AAFDB120FFF795FD8020F0
:102A4000FFF7A4FD2046FFF7A1FD8B20FFF79EFDB9
:102A50002046FFF79BFD9620FFF798FD2046FFF7E5
:102A600095FDB220FFF780FD2046FFF78FFDFFF7B1
:102A70008DFD0220FFF78AFD2046FFF787FD3846CF
:102A8000FFF784FD2046FFF781FDB320FFF76CFDC3
:102A90002046FFF77BFDFFF779FDFFF777FDFFF796
:102AA00075FDFFF773FDFFF771FDFFF76FFDFFF792
:102AB0006DFDFFF76BFDFFF769FDFFF767FDFFF7A2
:102AC00065FDFFF763FDFFF761FDFFF75FFDFFF7B2
:102AD0005DFDFFF75BFDFFF759FDFFF757FDFFF7C2
:102AE00055FDFFF753FDFFF751FDFFF74FFDFFF7D2
:102AF0004DFDB420FFF738FD8B20FFF747FD204642
:102B0000FFF744FD9620FFF741FD2046FFF73EFD0D
:102B1000A120FFF73BFD2046FFF738FDB520FFF76A
:102B200023FD0220FFF732FD2046FFF72FFD384638
:102B3000FFF72CFD2046FFF729FD0420FFF726FDB7
:102B40002046FFF723FDB620FFF70EFD2046FFF7D6
:102B50001DFDFFF71BFDB720FFF706FD2046FFF721
:102B600015FDFFF713FD3F20FFF710FD2046FFF78F
:102B70000DFD5E20FFF70AFD2046FFF707FD6420EC
:102B8000FFF704FD2046FFF701FD8C20FFF7FEFC58
:102B90002046FFF7FBFCAC20FFF7F8FC2046FFF7D0
:102BA000F5FCDC20FFF7F2FC2046FFF7EFFC70207D
:102BB000FFF7ECFC2046FFF7E9FC9020FFF7E6FC6E
:102BC0002046FFF7E3FCEB20FFF7E0FC2046FFF791
:102BD000DDFCDC20FFF7DAFC2046FFF7D7FCB8204D
:102BE000FFF7C2FC2046FFF7D1FCFFF7CFFCFFF751
:102BF000CDFCFFF7CBFCFFF7C9FCFFF7C7FCFFF7E5
:102C0000C5FCFFF7C3FCBA20FFF7AEFC2420FFF79A
:102C1000BDFC2046FFF7BAFCFFF7B8FCFFF7B6FC97
:102C2000C120FFF7A1FC2020FFF7B0FC2046FFF7F2
:102C3000ADFC5420FFF7AAFC2046FFF7A7FCFF20BD
:102C4000FFF7A4FC2046FFF7A1FCC220FFF78CFC95
:102C50000A20FFF79BFC2046FFF798FC0420FFF7B3
:102C600095FC2046FFF792FCC320FFF77DFC304621
:102C7000FFF78CFC2046FFF789FC3A20FFF786FC23
:102C80002046FFF783FC3920FFF780FC2046FFF742
:102C90007DFC3720FFF77AFC2046FFF777FC3046B3
:102CA000FFF774FC2046FFF771FC3620FFF76EFC3F
:102CB0002046FFF76BFC3220FFF768FC2046FFF749
:102CC00065FC2F20FFF762FC2046FFF75FFC2C20FD
:102CD000FFF75CFC2046FFF759FC2920FFF756FC64
:102CE0002046FFF753FC2620FFF750FC2046FFF755
:102CF0004DFC2420FFF74AFC2046FFF747FC242028
:102D0000FFF744FC2046FFF741FC2320FFF73EFC81
:102D10002046FFF73BFC3046FFF738FC2046FFF724
:102D200035FC3620FFF732FC2046FFF72FFC32201F
:102D3000FFF72CFC2046FFF729FC2F20FFF726FC8D
:102D40002046FFF723FC2C20FFF720FC2046FFF74E
:102D50001DFC2920FFF71AFC2046FFF717FC262050
:102D6000FFF714FC2046FFF711FC2420FFF70EFCB0
:102D70002046FFF70BFC2420FFF708FC2046FFF756
:102D800005FC2320FFF702FC2046FFF7FFFBC420D1
:102D9000FFF7EAFB6220FFF7F9FB2046FFF7F6FB9F
:102DA0000520FFF7F3FB2046FFF7F0FB8420FFF739
:102DB000EDFB2046FFF7EAFBF020FFF7E7FB20469C
:102DC000FFF7E4FB1820FFF7E1FB2046FFF7DEFBEF
:102DD000A420FFF7DBFB2046FFF7D8FB1820FFF706
:102DE000D5FB2046FFF7D2FB5020FFF7CFFB204654
:102DF000FFF7CCFB0C20FFF7C9FB2046FFF7C6FB13
:102E00001720FFF7C3FB2046FFF7C0FB9520FFF715
:102E1000BDFB2046FFF7BAFBF320FFF7B7FB2046C8
:102E2000FFF7B4FBE620FFF7B1FB2046FFF7AEFB50
:102E3000C520FFF799FB3220FFF7A8FB2046FFF7DC
:102E4000A5FB4420FFF7A2FB2046FFF79FFB652070
:102E5000FFF79CFB2046FFF799FB7620FFF796FBD8
:102E60002046FFF793FB8820FFF790FB2046FFF7F3
:102E70008DFBC620FFF778FB2020FFF787FB20465D
:102E8000FFF784FB1720FFF781FB2046FFF77EFB4F
:102E90002846FFF77BFB2046FFF778FBC720FFF7AC
:102EA00063FB2046FFF772FBFFF770FBFFF76EFB3B
:102EB000FFF76CFBC820FFF757FB2046FFF766FBC8
:102EC000FFF764FBFFF762FBFFF760FBC920FFF72A
:102ED0004BFB2046FFF75AFBFFF758FBFFF756FB6B
:102EE000FFF754FBFFF752FBFFF750FBFFF74EFBDA
:102EF000FFF74CFBFFF74AFBFFF748FBFFF746FBEA
:102F0000FFF744FBFFF742FBFFF740FBFFF73EFBF9
:102F1000FFF73CFBE020FFF727FB1620FFF736FB0F
:102F20002046FFF733FB1C20FFF730FB2046FFF75E
:102F30002DFB2120FFF72AFB2046FFF727FB362039
:102F4000FFF724FB2046FFF721FB4620FFF71EFB7F
:102F50002046FFF71BFB5220FFF718FB2046FFF728
:102F600015FB6420FFF712FB2046FFF70FFB7A20CA
:102F7000FFF70CFB2046FFF709FB8B20FFF706FB52
:102F80002046FFF703FB9920FFF700FB2046FFF7E1
:102F9000FDFAA820FFF7FAFA2046FFF7F7FAB92062
:102FA000FFF7F4FA2046FFF7F1FAC420FFF7EEFA34
:102FB0002046FFF7EBFACA20FFF7E8FA2046FFF7B2
:102FC000E5FAD220FFF7E2FA2046FFF7DFFAD92030
:102FD000FFF7DCFA2046FFF7D9FAE020FFF7D6FA30
:102FE0002046FFF7D3FAF320FFF7D0FA2046FFF789
:102FF000CDFAE120FFF7B8FA1620FFF7C7FA20460E
:10300000FFF7C4FA1C20FFF7C1FA2046FFF7BEFA0B
:103010002220FFF7BBFA2046FFF7B8FA3620FFF769
:10302000B5FA2046FFF7B2FA4520FFF7AFFA20467F
:10303000FFF7ACFA5220FFF7A9FA2046FFF7A6FAED
:103040006420FFF7A3FA2046FFF7A0FA7A20FFF7E3
:103050009DFA2046FFF79AFA8B20FFF797FA204651
:10306000FFF794FA9920FFF791FA2046FFF78EFABE
:10307000A820FFF78BFA2046FFF788FAB920FFF760
:1030800085FA2046FFF782FAC420FFF77FFA204630
:10309000FFF77CFACA20FFF779FA2046FFF776FAA5
:1030A000D220FFF773FA2046FFF770FAD820FFF717
:1030B0006DFA2046FFF76AFAE020FFF767FA20462C
:1030C000FFF764FAF320FFF761FA2046FFF75EFA94
:1030D000E220FFF749FA0520FFF758FA2046FFF7EC
:1030E00055FA0B20FFF752FA2046FFF74FFA1B2044
:1030F000FFF74CFA2046FFF749FA3420FFF746FA6B
:103100002046FFF743FA4420FFF740FA2046FFF736
:103110003DFA4F20FFF73AFA2046FFF737FA6120D1
:10312000FFF734FA2046FFF731FA7920FFF72EFA3D
:103130002046FFF72BFA8820FFF728FA2046FFF7F2
:1031400025FA9720FFF722FA2046FFF71FFAA6205C
:10315000FFF71CFA2046FFF719FAB720FFF716FA17
:103160002046FFF713FAC220FFF710FA2046FFF7B8
:103170000DFAC720FFF70AFA2046FFF707FAD12019
:10318000FFF704FA2046FFF701FAD620FFF7FEF911
:103190002046FFF7FBF9DD20FFF7F8F92046FFF79F
:1031A000F5F9F320FFF7F2F92046FFF7EFF9E320F6
:1031B000FFF7DAF90520FFF7E9F92046FFF7E6F90E
:1031C0000A20FFF7E3F92046FFF7E0F91C20FFF79C
:1031D000DDF92046FFF7DAF93320FFF7D7F920466B
:1031E000FFF7D4F94420FFF7D1F92046FFF7CEF9D5
:1031F0005020FFF7CBF92046FFF7C8F96220FFF710
:10320000C5F92046FFF7C2F97820FFF7BFF920463D
:10321000FFF7BCF98820FFF7B9F92046FFF7B6F9A8
:103220009720FFF7B3F92046FFF7B0F9A620FFF784
:10323000ADF92046FFF7AAF9B720FFF7A7F9204616
:10324000FFF7A4F9C220FFF7A1F92046FFF79EF986
:10325000C720FFF79BF92046FFF798F9D120FFF729
:1032600095F92046FFF792F9D520FFF78FF9204610
:10327000FFF78CF9DD20FFF789F92046FFF786F983
:10328000F320FFF783F92046FFF780F9E420FFF7EA
:103290006BF92846FFF77AF92046FFF777F92846B9
:1032A000FFF774F92046FFF771F90220FFF76EF976
:1032B0002046FFF76BF92A20FFF768F92046FFF751
:1032C00065F93046FFF762F92046FFF75FF94B20BA
:1032D000FFF75CF92046FFF759F95D20FFF756F933
:1032E0002046FFF753F97420FFF750F92046FFF707
:1032F0004DF98420FFF74AF92046FFF747F993205C
:10330000FFF744F92046FFF741F9A220FFF73EF905
:103310002046FFF73BF9B320FFF738F92046FFF7C7
:1033200035F9BE20FFF732F92046FFF72FF9C42008
:10333000FFF72CF92046FFF729F9CD20FFF726F9F2
:103340002046FFF723F9D320FFF720F92046FFF7A7
:103350001DF9DD20FFF71AF92046FFF717F9F320D2
:10336000FFF714F92046FFF711F9E520FFF7FCF805
:103370002046FFF70BF9FFF709F9FFF707F9FFF709
:1033800005F90220FFF702F92046FFF7FFF8292090
:10339000FFF7FCF82046FFF7F9F83046FFF7F6F89C
:1033A0002046FFF7F3F84B20FFF7F0F82046FFF731
:1033B000EDF85D20FFF7EAF82046FFF7E7F8742004
:1033C000FFF7E4F82046FFF7E1F88420FFF7DEF886
:1033D0002046FFF7DBF89320FFF7D8F82046FFF7E9
:1033E000D5F8A220FFF7D2F82046FFF7CFF8B32098
:1033F000FFF7CCF82046FFF7C9F8BE20FFF7C6F864
:103400002046FFF7C3F8C420FFF7C0F82046FFF7B7
:10341000BDF8CD20FFF7BAF82046FFF7B7F8D32064
:10342000FFF7B4F82046FFF7B1F8DC20FFF7AEF85D
:103430002046FFF7ABF8F320FFF7A8F82046FFF788
:10344000A5F8E620FFF790F81120FFF79FF8204637
:10345000FFF79CF83420FFF799F82046FFF796F81D
:103460005620FFF793F82046FFF790F87620FFF7F5
:103470008DF82046FFF78AF87720FFF787F8204677
:10348000FFF784F86620FFF781F82046FFF77EF803
:103490008820FFF77BF82046FFF778F89920FFF7A0
:1034A00075F82046FFF772F8BB20FFF76FF820464B
:1034B000FFF76CF89920FFF769F82046FFF766F8E8
:1034C0006620FFF763F82046FFF760F85520FFF706
:1034D0005DF82046FFF75AF85520FFF757F82046C9
:1034E000FFF754F84520FFF751F82046FFF74EF854
:1034F0004320FFF74BF82046FFF748F84420FFF73A
:1035000045F82046FFF742F8E720FFF72DF8322074
:10351000FFF73CF82046FFF739F85520FFF736F85B
:103520002046FFF733F87620FFF730F82046FFF704
:103530002DF86620FFF72AF82046FFF727F86720C6
:10354000FFF724F82046FFF721F86720FFF71EF861
:103550002046FFF71BF88720FFF718F82046FFF7F3
:1035600015F89920FFF712F82046FFF70FF8BB2057
:10357000FFF70CF82046FFF709F89920FFF706F847
:103580002046FFF703F87720FFF700F82046FEF704
:10359000FDFF4420FEF7FAFF2046FEF7F7FF562016
:1035A000FEF7F4FF2046FEF7F1FF2320FEF7EEFFC3
:1035B0002046FEF7EBFF3320FEF7E8FF2046FEF73C
:1035C000E5FF4520FEF7E2FF2046FEF7DFFFE8209B
:1035D000FEF7CAFF2046FEF7D9FFFEF7D7FF992076
:1035E000FEF7D4FF2046FEF7D1FF8720FEF7CEFF7F
:1035F0002046FEF7CBFF8820FEF7C8FF2046FEF7E7
:10360000C5FF7720FEF7C2FF2046FEF7BFFF66200A
:10361000FEF7BCFF2046FEF7B9FF8820FEF7B6FF95
:103620002046FEF7B3FFAA20FEF7B0FF2046FEF7C4
:10363000ADFFBB20FEF7AAFF2046FEF7A7FF9920AB
:10364000FEF7A4FF2046FEF7A1FF6620FEF79EFFCF
:103650002046FEF79BFF5520FEF798FF2046FEF719
:1036600095FF5520FEF792FF2046FEF78FFF44207E
:10367000FEF78CFF2046FEF789FF4420FEF786FF09
:103680002046FEF783FF5520FEF780FF2046FEF719
:103690007DFFE920FEF768FFAA20FEF777FF2046AE
:1036A000FEF774FFFEF772FFFEF770FFFEF75CFF98
:1036B000AA20FEF76BFFCF20FEF756FF2046FEF74D
:1036C00065FFFEF763FFFEF761FFFEF75FFFFEF7A2
:1036D0005DFFFEF75BFFFEF759FFFEF757FFFEF7B2
:1036E00055FFFEF753FFFEF751FFFEF74FFFFEF7C2
:1036F0004DFFFEF74BFFFEF749FFFEF747FFFEF7D2
:1037000045FFF020FEF730FF2046FEF73FFF502038
:10371000FEF73CFF2046FEF739FFFEF737FFFEF7C6
:1037200035FFF320FEF720FF2046FEF72FFFF9209C
:10373000FEF71AFF0620FEF729FF4046FEF726FF98
:103740002920FEF723FF2046FEF720FF3A20FEF750
:103750000BFF5520FEF71AFF1120FEF705FF64202E
:10376000FDF71AFB2920FEF7FFFE3520FEF7FCFED1
:103770002046FEF70BFF5120FEF7F6FEFF20FEF776
:1037800005FF5320FEF7F0FE2C20FEF7FFFE55202C
:10379000FEF7EAFE8220FEF7F9FE2C20FEF7E4FE9B
:1037A000B9F8042047F296739A420BD047F2897316
:1037B0009A4207D045F210339A4203D045F2105393
:1037C0009A4216D1104B596821F00F01596059687F
:1037D00021F470615960596841F00301596047F262
:1037E00089718A425A680CBF42F4806242F40072C6
:1037F0005A600020FEF77AFF044B0122C3F8B02282
:1038000015B0BDE8F08300BF000100A00080414278
:1038100010B504460420FDF739FB014B1C6010BDB8
:10382000A00800200B4B70B54FF0E0241B686569C1
:10383000A16958430023A2699142FCD095BFAE1AFA
:103840005B189B199B1A98BF5B18834200D370BD0D
:103850001146F0E7A00800200220FFF7E3BF0000B8
:1038600010B5A82086B0FFF7D3FF00230093104BBC
:10387000104C1A6B42F002021A631B6B03F0020336
:1038800000934FF40042009B0123CDE901230393F1
:1038900001A9032320460493FDF7A6FC4FF48053AF
:1038A00001A920460193FDF79FFC06B010BD00BFA3
:1038B000003802400004024038B50D4B0D4C1A6828
:1038C00022F040721A601A6842F080721A60012376
:1038D000C4F8B0321E20C4F8BC320025FFF7A2FFA6
:1038E000C4F8B052FFF7B8FFC4F8BC5238BD00BFEF
:1038F000000402400080404238B50C4B0C4C1A6862
:1039000022F040721A601A68012542F080721A6033
:103910001E20C4F8BC52FFF785FF0023C4F8B03264
:10392000FFF79AFFC4F8B05238BD00BF0004024050
:103930000080404238B5104B104D1A6822F040729A
:103940001A601A681A600123C5F8B032C5F8BC3293
:10395000FFF782FFFB24D5F8300210B9C5F8BC028E
:1039600006E0013C14F0FF0403D1FFF7C5FF01207E
:1039700038BDFFF771FFEEE70004024000804042CF
:1039800038B50D4C0D4B0025C4F8BC521A6822F016
:1039900040721A601A6842F080721A60FFF75CFF8A
:1039A000C4F8B052FFF758FF0123C4F8BC32FFF748
:1039B00053FFC4F8BC5238BD0080404200040240AE
:1039C00070B50D4C0D4B0025C4F8BC521A6822F09E
:1039D00040721A601A6842F080721A600126FFF77E
:1039E0003BFFC4F8B062FFF737FFC4F8BC62FFF7D3
:1039F00033FFC4F8BC5270BD008040420004024056
:103A0000144B1A6822F040722DE9F0411A601A68CE
:103A1000114E42F0807200271A60C6F8BC7204464C
:103A2000FFF71AFF08254FF00108E309C6F8B03286
:103A3000FFF712FFC6F8BC82FFF70EFF013DC6F884
:103A4000BC72FFF709FF640015F0FF05E4B2ECD18A
:103A5000BDE8F08100040240008040422DE9F843B7
:103A6000174B184F1A6822F040721A601A681A60D1
:103A700006461E20FFF7D6FE00240825A1464FF07B
:103A80000108C7F8BC92FFF7E7FEC7F8BC82FFF752
:103A9000E3FED7F830326400E4B20BB10134E4B293
:103AA000013DFFF7D9FE15F0FF05EAD126B9FFF772
:103AB00087FF2046BDE8F883FFF762FFF9E700BF04
:103AC000000402400080404270B50C461646054690
:103AD000FFF7F2FE2820FFF793FFFFF72BFF280ADE
:103AE000FFF78EFFFFF726FFE8B2FFF789FFFFF72A
:103AF00021FF2644B44201D1002508E014F8010B4F
:103B0000FFF77EFFFFF716FF05460028F2D0FFF70C
:103B1000F3FE284670BDF8B515460E460446FFF77D
:103B2000CBFE2820FFF76CFFFFF704FF200AFFF70A
:103B300067FFFFF7FFFEE0B2FFF762FFFFF7FAFE55
:103B4000FFF7BAFE2920FFF75BFFFFF7F3FE002423
:103B50006F1EAC4203D1BDE8F840FFF7CDBE381B65
:103B600018BF0120FFF77AFF30550134F1E700005C
:103B7000F0B53A4B3A4A9B793A4E3B4803F0010381
:103B800089B063F07F03002582F83030374B009511
:103B900055601A6B42F002021A631B6B03F00203BA
:103BA00000930124009B03274FF4005303A9CDE9A0
:103BB0000335CDE90547FDF717FB4FF4804303A913
:103BC0002948CDE90334FDF70FFBFFF749FEC6F89E
:103BD000B8520A20FDF7E0F8C6F8B8420A20FDF70F
:103BE000DBF8022603A92048CDE90557CDE9036497
:103BF000FDF7FAFA6420FDF7CFF804220DEB02017D
:103C000048F24010FFF787FF01A919488DF80850C6
:103C100029F0A2FB174901A8FCF7DAFA0546D8B942
:103C2000224601A948F240008DF80460FFF74CFFDE
:103C3000224601A948F25000FFF76DFF0A20FDF768
:103C4000ABF8224601A948F240008DF80450FFF776
:103C50003BFF284609B0F0BD2046FBE740080020A6
:103C60000C00002000804042000402400038024066
:103C700066EB020872EB020813B501220DF1070191
:103C800048F24E10FFF747FF9DF807300A4C03F04B
:103C90000F0384F82130012200230DF1070148F2BF
:103CA0004E108DF80730FFF70FFF94F82100003811
:103CB00018BF012002B010BD0C00002013B50B4C42
:103CC00094F8213073B104220DEB020148F2501038
:103CD000FFF721FFBDF80430A381BDF80630E38271
:103CE00002B010BD4FF6FF73A381F8E70C0000206F
:103CF00000F108034FF0FF32C0E902234360036183
:103D000000230360704700230361704730B50C68DF
:103D1000631C0AD103695A684A6091608B605960DC
:103D2000036808610133036030BD00F108021346E7
:103D300052681568A542FAD9EDE7D0E90112036986
:103D40008A6051605968814208BF5A60002202614E
:103D5000186801381860704710B5044601F0ECF897
:103D6000A46B01F0F9F8B4FA84F0400910BD0346E1
:103D700010B41A6C08466AB1DC68996814448C4225
:103D800028BF1968DC6028BFD960D9685DF8044B8A
:103D900029F069BC5DF8044B704770B5044601F02A
:103DA000CBF894F8455004F124066DB2002D14DCD4
:103DB000FF2384F8453001F0CFF801F0BDF894F806
:103DC000445004F110066DB2002D12DCFF2384F87C
:103DD0004430BDE8704001F0BFB8636A002BE7D003
:103DE000304600F06FFD08B100F0FAFD013D6DB204
:103DF000DCE72369002BE9D0304600F063FD08B111
:103E000000F0EEFD013D6DB2DEE770B50E460446F2
:103E100010B3C06B00B3236CA3FB0035DDB901F018
:103E20008BF8D4E90F31226862604B43D0185B1ADB
:103E30001A44FF23A563A06084F84430E26084F84C
:103E4000453056B104F11000FFF752FF04F1240091
:103E5000FFF74EFF12E0002070BD236973B104F13B
:103E6000100000F02FFD48B14FF0E0234FF08052DA
:103E7000C3F8042DBFF34F8FBFF36F8F01F06CF8C1
:103E80000120E9E738B50D461C46A8B113B11AB1B7
:103E900021B90C46204638BD81B91A460121C4E932
:103EA0000F0584F8461022602046FFF7AEFF9DF80C
:103EB000103084F84C30EDE70446EBE71446E9E7B0
:103EC0002DE9FF41002704460E460192B84601F055
:103ED00033F8A56BE5B131462046FFF748FF23696B
:103EE000013DA56373B104F1100000F0EBFC48B193
:103EF0004FF0E0234FF08052C3F8042DBFF34F8FF3
:103F0000BFF36F8F01F028F8012004B0BDE8F08105
:103F1000019B1BB901F020F80020F6E717B902A8B1
:103F200000F02AFD01F018F800F0F4FA01F004F8AE
:103F300094F84430FF2B08BF84F8448094F845304F
:103F4000FF2B08BF84F8458001F006F801A902A8FC
:103F500000F01EFD00BB2046FFF7FEFEB0B1019948
:103F600004F1240000F07EFC2046FFF716FF00F06D
:103F70008BFB48B94FF0E0234FF08052C3F8042D7B
:103F8000BFF34F8FBFF36F8F0127A0E72046FFF7E6
:103F900004FF00F079FBF7E72046FFF7FEFE00F094
:103FA00073FB2046FFF7D8FE0028EDD0B4E70000F1
:103FB00070B5B9B10C4A00231C46154656688642B6
:103FC00004D105EBC403C3E900100BE01BB916686C
:103FD000002E08BF13460134042C02F10802EDD173
:103FE000002BF0D170BD00BFA408002070B50446BE
:103FF0000D46164600F0A0FF94F84430FF2B04BF96
:10400000002384F8443094F84530FF2B04BF00238C
:1040100084F8453000F0A0FFA36B2BB93246294647
:1040200004F1240000F02EFC2046BDE87040FFF7AC
:10403000B4BE000007B5094B01A91B88ADF80430D8
:10404000002028F031FE00214FF0FF3027F078FBF0
:10405000FCF7CAFB0A2000F0BBFBF4E720EB0208E8
:104060007FB50021102202A8019129F079FA28F0E9
:1040700067FF0C4C0C4D2378012B0FD100F04AFA4E
:10408000082301AA0021502029F07AF800F0FCFA58
:1040900001A9284629F060F9002323700A2000F0C6
:1040A00097FBE8E7A40600206DEB020808B5084C72
:1040B000084E00252368B3F5FA7F04D30421304667
:1040C0002560FDF774F90A2000F082FBF2E700BFDB
:1040D00068AB01200000024008B504F019FA01F0B5
:1040E00093FC01F0D3FC064801F03DF8044801F0D0
:1040F00013F81DF083FC0A2000F06AFBF9E700BF0B
:10410000C40800202DE9F341134C144E144FDFF87E
:10411000548000256369019323690093D4E9000169
:10412000D4E9022300F07EF90128616812D13846F3
:1041300029F012F900F0A6FE01464046013529F0AB
:104140000BF9042D04F11804E4D102B0BDE8F041EC
:1041500000F096B93046F1E740000020AFEB0208CE
:1041600077EB02088EEB020807494FF0E0234FF08F
:10417000805208680128FDD9C3F8042DBFF34F8F82
:10418000BFF36F8FF5E700BFA80900202DE9F041CC
:10419000044600F0D1FE324B324E1A68324F0132E3
:1041A0001A603568002D4FD134601B68012B1CD17B
:1041B000B84640460135FFF79BFD052D08F1140870
:1041C000F7D1DFF8C880294D4046FFF791FD28461A
:1041D000FFF78EFD2648FFF78BFD2648FFF788FD89
:1041E000254BC3F80080254B1D60254A1368013319
:1041F0001360244AA3641168E36A8B4288BF13608A
:1042000014225343F918201D4A68A2609568E5609E
:1042100068609060FA5861610132FA5000F09CFECB
:10422000194B1B6873B13368DA6AE36A9A4209D2A0
:104230004FF0E0234FF08052C3F8042DBFF34F8FAF
:10424000BFF36F8FBDE8F0810F4B1A68E36A002A55
:10425000CBD13268D26A9A4298BF3460C5E700BFBA
:104260004C0900200C0A0020A80900208009002029
:1042700064090020500900207C09002078090020F2
:104280003009002044090020400900209409002042
:104290002DE9F8431D4B1E4C1D681E4BD3F80080C2
:1042A0001D4B0646D3F80090206804300F46FFF7F8
:1042B00044FD731C14D19FB1184B21685A688A6061
:1042C00021689068C8602168043141602168043128
:1042D0009160226853611A6801321A60BDE8F88360
:1042E00023682168AD195D6001F1040104D34846DB
:1042F000BDE8F843FFF70ABD4046FFF707FD084B4E
:104300001A68AA4288BF1D60E8E700BF480900207C
:104310000C0A00207C0900207809002050090020A8
:104320002C090020064A13681968064B19B94FF08A
:10433000FF321A6070471268D2681268F9E700BF4E
:104340007C0900202C0900202DE9F843DDE90984CF
:104350004FEA82094A4606460D46206BA5211F46B4
:1043600029F0FEF8236BA9F104094B4423F0070957
:10437000C4F844906DB16B1E04F133020F3513F88D
:10438000011F02F8011F09B1AB42F8D1002384F8E4
:104390004330089D042D28BF0425E5622565201DB6
:1043A000FFF7B1FCC5F1050504F11800FFF7ABFC00
:1043B0002461A56164623A463146484600F096FDA4
:1043C0002060B8F1000F01D0C8F80040BDE8F883C4
:1043D0002DE9F04387B0DDE90F940E460021054634
:1043E000174698460591CCB1B9F1000F16D060225E
:1043F000204629F0B5F8022384F85D3005ABC4F8F7
:10440000309001930E9B00932846029443463A460F
:104410003146FFF799FF2046FFF7B8FE059807B031
:10442000BDE8F0832DE9F043074685B0900088464B
:104430001646994600F060FC0546F0B1602000F099
:104440005BFC0446B0B16022002129F089F80D9B85
:10445000256301930C9B009332464B4641463846F8
:104460000294FFF771FF2046FFF790FE012005B090
:10447000BDE8F083284600F0BBFC4FF0FF30F6E7C4
:1044800030B500238DB0CDE90833CDE90A331B4A9E
:1044900008AB1D4612F8014B03F8014B002CF9D173
:1044A00007AA06A905A8CDE90544FCF7E1F9059B93
:1044B0000293069B079A1248CDE9004329462346FA
:1044C000FFF786FFA8B100F0EDFB012811D14FF0F6
:1044D000200383F31188BFF36F8FBFF34F8F094B16
:1044E0004FF0FF321A60084B1860084B1C6000F058
:1044F00095FD074B1B680DB030BD00BFEDEB02080A
:10450000694100082C0900204009002048090020CA
:10451000A0000020024A136801331360704700BFF7
:1045200028090020014B1868704700BF4809002087
:104530002DE9F84F494B1B68002B40F08880484B11
:104540001C6801341C605CB9464A474B1168186806
:104550001060464A1960136801331360FFF7E2FEEA
:10456000434D2B689C424FF0000006D2414B1B6824
:10457000002B18BF0120BDE8F88F3A4EDFF804C1C8
:104580003D49074633681B681BB94FF0FF332B606A
:10459000ECE73368DB68DB685A68944201D22A6032
:1045A000E4E7D3E90229D3F81480C2F80890C9F8E7
:1045B0000420D8F8042003F1040E7245D8F8002036
:1045C00008BFC8F80490013A5F61C8F80020D3F82A
:1045D0002880B8F1000F13D0D3E90729C2F808905A
:1045E000C9F80420D8F8042003F1180A5245D8F875
:1045F000002008BFC8F80490013A9F62C8F8002064
:10460000DA6ADCF8008042454FF0140808FB02F833
:1046100001EB080A88BFCCF80020DAF80490C3F850
:104620000890D9F808B0C3F80CB0CBF804E0C9F88A
:1046300008E0C3F814A051F80830013341F80830FD
:104640000E4B1B68DB6A9A4288BF01209AE70C4A2E
:1046500013680133136000208DE700BF2809002094
:10466000480900207C090020780900203409002036
:104670002C09002038090020A80900200C0A00207D
:104680003C090020440900202DE9F84F00F054FCBB
:10469000474B1A68013A1A601B682BB1002400F0DE
:1046A0005BFC2046BDE8F88F424A1268002AF5D02C
:1046B0004148424C424A434E434F14254FF0010CAF
:1046C00051E0C368DB68D3E90718D3F828E0C1F8E4
:1046D0000880C8F80410DEF8041003F118094945F1
:1046E0004FF0000108BFCEF804809962DEF8001098
:1046F0000139CEF80010D3E90218D3F814E0C1F85C
:104700000880C8F80410DEF8041003F104094945D4
:10471000DEF8001008BFCEF804800139CEF8001092
:10472000D3F82CE0216805FB0EF802EB080A8E4551
:10473000DAF804109960D1F808B0C3F80CB0CBF8DF
:104740000490C1F8089052F8081088BFC4F800E03F
:104750000131C3F814A042F808103168C96A8E45C7
:1047600001D9C7F800C001680029AAD10BB1FFF731
:10477000D9FD164D2C6844B1134E0127FFF7D8FE22
:1047800000B13760013CF9D12C600F4B1B68002B46
:1047900084D00C4B1B684FF0E0234FF08052C3F8DD
:1047A000042DBFF34F8FBFF36F8F012477E700BF56
:1047B000280900204C090020640900204409002039
:1047C000A80900200C0A0020380900203C0900201C
:1047D00008B550B94FF0E0234FF08052C3F8042DD4
:1047E000BFF34F8FBFF36F8F08BD0021FFF792FE1D
:1047F000FFF74EFDFFF748FF0028EBD0F4E700007D
:10480000134B1A68134B70B512B101221A6070BDB8
:10481000114C1A602168114A142606FB01F39818FE
:10482000D55895B1456808336D68456013449D427D
:1048300004BFC3684360142303FB01225368DA6892
:10484000074B1A6021601B68E1E70139E5E700BF0B
:10485000280900203809002044090020A809002068
:104860000C0A002010B5064B0C4619681831FFF7EA
:104870004DFA20460121BDE81040FFF709BD00BFF9
:104880000C0A00200E4B70B41D684468EC611D6872
:10489000A6682E621D68183575601D681B6818357E
:1048A000A56098620368002A03F10103036070BCED
:1048B0000CBF08464FF0FF301146FFF7E9BC00BFC0
:1048C0000C0A0020C368DB68D3E907019A6AF0B5D7
:1048D00081604860506803F11804A04208BF51602D
:1048E000002199621168013911601D4AD96A126864
:1048F000002A29D1D3E902405A69A0604460546873
:104900001D1DAC4208BF5060106801381060154A88
:104910001068814288BF1160134814224A438618E8
:1049200074689C60A768DF607D60A5605E618358E5
:10493000013383500D4B1B68DB6A994283BF0C4BDC
:10494000012018600020F0BD0A4A5068D8618568CF
:104950001D626C6084609A62136801331360E9E73A
:104960002809002044090020A80900200C0A002082
:104970003809002064090020034B1B680360034BC7
:104980001B684360704700BF3409002048090020BD
:1049900070B50D46044600F0CFFA0F4B19682B682E
:1049A0005A1C17D00D48266800686268864208D0F5
:1049B0008A4206D800232B60012400F0CDFA20465D
:1049C00070BD881A8342F5D95B1A13442B602046C8
:1049D000FFF7D2FF0024F0E7480900203409002047
:1049E000014B01221A60704738090020914208B536
:1049F000416000610AD8D21A83699A420DD2084BED
:104A0000011D1868FFF782F9002008BD9A4201D203
:104A1000994202D2034B011DF3E70120F5E700BFE5
:104A2000EC0B0020F00B002070B504460D46164636
:104A3000A1692B46324629442046FFF7D7FF00B92B
:104A400070BDA36920461D44236A9847F0E7000023
:104A50000E4B1B68DB6870B5DC680546201D0E46F2
:104A6000FFF76BF994F828305A0709D532462946E2
:104A70002046FFF7D9FF236A2046BDE8704018475B
:104A800023F0010384F82830F5E700BFF00B002085
:104A9000F8B50F4E0546FFF745FD336883420446DF
:104AA00009D90C4F3B681A6852B90B4A1168396032
:104AB0001360012300E000232B6034602046F8BD22
:104AC000DB684FF0FF311868FFF7C2FFEAE700BF6D
:104AD000E00B0020F00B0020EC0B00202DE9F04350
:104AE000DFF85481524F85B00026D8F80030D3F853
:104AF0000090B9F1000F39D0DB68D3F800900024A2
:104B0000FFF708FD01A8FFF7C3FF019B0546002B37
:104B100049D16CBB484531D3FFF7B6FD294648461D
:104B2000FFF796FFCDE9016603963868002201A9D8
:104B3000FFF7C6F90028D8D0019B002BF5DB039CBA
:104B4000002CF2D0636913B1201DFFF7F6F8684618
:104B5000FFF79EFF019B013B0546082BE5D8DFE8E8
:104B600003F02525484F5E2525484F000124C7E75F
:104B7000304B1B681C68B4FA84F464093868224618
:104B8000A9EB0501FFF732FAFFF77EFD0028C9D136
:104B90004FF0E0234FF08052C3F8042DBFF34F8F46
:104BA000BFF36F8FBEE7FFF76FFDBBE794F82830C8
:104BB000A16943F0010384F82830029B024619449E
:104BC0002046FFF713FF0028AFD094F8283059078C
:104BD0000AD5A36902992A4619442046FFF724FF03
:104BE000236A20469847A0E723F0010384F8283081
:104BF000F6E794F8283023F0010384F8283094E78E
:104C000094F8283043F0010384F828300299A16118
:104C10000346024601442046FFF7E8FE85E794F884
:104C200028309A07E7D4204600F0E2F87DE700BF7D
:104C3000E80B0020EC0B0020F00B0020F7B5114C26
:104C400000F07AF92568BDB90F4F104E3846FFF7CE
:104C50004FF83046FFF74CF80D4B0E4A1F600E4BD5
:104C60000C211E6020200D4B0095FFF70BF92060F2
:104C700010B10B49FFF79CF903B0BDE8F04000F01C
:104C80006BB900BFE80B0020080C0020F40B0020DB
:104C9000F00B0020600A0020EC0B0020100A00201E
:104CA000F2EB020810B588B0FFF7C8FF0E4B18688A
:104CB0000024B8B107AA06A905A8CDE90544FBF769
:104CC000E3FD059B0293069B019303230093079A40
:104CD000064907482346FFF77BFB064B1860001B7D
:104CE00018BF012008B010BDE80B0020F7EB020848
:104CF000DD4A0008E40B0020F8B5431E0A3363D8F0
:104D000010F0070300F1080405D0A3F10902A24244
:104D10005AD31030C41A304DFFF7FCFB2B68F3B99F
:104D20002E4A2F4853071FBFD11D21F0070102F55E
:104D30002052531A0CBF4FF420530A461344083B29
:104D400023F00703002141600260C3E90011991AB2
:104D5000C2E900312B60234B1960234B1960002CF2
:104D600037DD214E3168A14233D31D4A136858689C
:104D7000A04201D21F684FBB2D689D4229D0156803
:104D8000D3F800C0C2F800C0001B102805F10805C8
:104D900005D91F1978605C6043F804C01760586833
:104DA0000A1A104932600C68A24238BF0A60002219
:104DB0001A600E4A40F000405860136801331360D7
:104DC000FFF762FC2846F8BD0024A4E71A463B46DC
:104DD000CDE70025F4E700BF2C0C0020380C0020A4
:104DE000300C0020240C0020280C0020200C002077
:104DF00038B5054600283BD050F8043C002B37DA84
:104E000050F8082C002A33D123F0004340F8043C2A
:104E1000A0F10804FFF77EFB164A55F8041C13683E
:104E20000B441360144B1A461B689C42FBD8506815
:104E30001518AC4202BF0918144651606068211869
:104E40008B4213D10D4909688B4203D05968014444
:104E5000616019682160A24218BF1460084A136893
:104E600001331360BDE83840FFF70EBC1946F1E787
:104E700038BD00BF280C0020300C00202C0C002076
:104E80001C0C0020014B1868704700BF280C002044
:104E900082B0002301934FF0200383F31188BFF306
:104EA0006F8FBFF34F8F019B002BFCD002B0704778
:104EB00008480068006880F308884FF0000080F31D
:104EC000148862B661B6BFF34F8FBFF36F8F00DFF8
:104ED00000BF000008ED00E0DFF80C00016841F4BD
:104EE000700101607047000088ED00E04FF08073B2
:104EF00040F8043C074B40F80C3C21F001016FF0F6
:104F0000020340F8081C40F8202C40F8243C4438A8
:104F1000704700BF914E0008064B19680868B0E85A
:104F2000F04F80F30988BFF36F8F4FF0000080F3DC
:104F3000118870470C0A00204FF0200383F311887A
:104F4000BFF36F8FBFF34F8F024A136801331360B3
:104F5000704700BFA4000020034A1368013B1360A0
:104F60000BB983F311887047A4000020EFF3098088
:104F7000BFF36F8F144B1A681EF0100F08BF20ED9F
:104F8000108A20E9F04F10602DE909004FF0200051
:104F900080F31188BFF34F8FBFF36F8FFFF730FCA3
:104FA0004FF0000080F3118809BC19680868B0E868
:104FB000F04F1EF0100F08BFB0EC108A80F3098884
:104FC000BFF36F8F704700000C0A002008B54FF048
:104FD000200383F31188BFF36F8FBFF34F8FFFF769
:104FE000A7FA28B14FF0E0234FF08052C3F8042D08
:104FF000002383F3118808BD4FF0E02200231361E2
:105000009361054B4FF47A711B68B3FBF1F3013BDD
:1050100053610723136170470000002038B54FF03B
:10502000E0240025D4F8203D43F47F03C4F8203D5C
:10503000D4F8203D43F07F43C4F8203DC4F81C5D04
:10504000FFF7DAFF084B1D60FFF746FFD4F8343F47
:1050500043F04043C4F8343FFFF72AFFFFF7D0FB8B
:10506000FFF716FF284638BDA40000207FB500F0EA
:10507000E1FF072814D10C4B18681CF099FD0023A0
:105080000122CDE90432CDE9023308480193084BEF
:10509000009390F83020031D00F12C0100F03DF842
:1050A00007B05DF804FB00BF70340020C408002086
:1050B000AD5200087FB500F0BDFF072813D10B4BA0
:1050C00018681CF075FD00230122CDE90432CDE9FA
:1050D000023307490193074B00930A7901F130032A
:1050E000084600F01AF807B05DF804FB64340020AD
:1050F000C40800209D56000803460249406A002269
:1051000000F0B2BF6D50000803460249C06C002297
:1051100000F0AABFB550000870472DE9F7439DF88D
:105120003C509DF838900E4690461C4607461AF0B3
:1051300081F900F01FFD25B1B9F1000F01D007F092
:105140006AFDB8F1000F02D00A9B384698470095D7
:10515000DDE90C239DF82C10306800F045FD25702A
:1051600003B0BDE8F08310B501230446037180F855
:10517000303000F09BF8E06ABDE8104000F06EBEF1
:1051800008B500F053FF1EF0C7FD01B207EE901AFC
:105190009FED087A084B0948F8EEE77A67EE877AC0
:1051A000C3ED007A28F0D8F8BDE808400449002093
:1051B00021F0C2BFCDCCCC3DA8000020FFEB0208FF
:1051C0004034002038B5054600F030FF044628463C
:1051D00000F036FF017D11F001050AD01CF0EDFC56
:1051E0000021204607F031FC0649BDE8384021F097
:1051F000A3BF1CF0DDFC2946204607F026FC02492F
:10520000F3E700BF12EC020818EC020870B52DEDB0
:10521000048BC5689FED1E9A1AF0C0F91D4ADFED98
:105220001E6A13681060C31A07EE903A1B4BF8EE23
:10523000677A93ED007A1A4B67EE877A93ED008ACE
:10524000A7EEA68ADFED177A83ED008A164B1B685E
:105250005C6867EE278AA61EF7EE009A6234B0EE0D
:10526000480A28F017FF70EE297A38EE288A67EE90
:10527000897AFDEEE77A17EE903A26F8023FA642C9
:10528000EDD1BDEC048B2846BDE8704015F047BC5D
:10529000000048423C340020A69B443BA80000206C
:1052A00038340020F5AD803D603400202DE9F04F0A
:1052B000044685B0002003F055F94FF4F072E06227
:1052C0004FF4A07104F041F9E06ADFF8F492002194
:1052D00005F077FBE06A0022FF2107F02BFBE06A74
:1052E000002240F2062107F015FBE06A03F03AF9CC
:1052F0000A226063114604F0EFF84FF496721146EB
:10530000606B04F022F9606B002105F05AFB606BC2
:105310000022022107F032FB42F2BE48606B0022FD
:10532000FF2107F026FB606B4146002207F011FBCE
:10533000606B00220F2107F026FB606B00220A2120
:1053400007F045FB606B0022FF2107F0F3FA606B6A
:10535000002241F6C50107F0DDFA656B0022284600
:10536000052107F0CDFA28460022052107F0CDFAE5
:1053700028460022052107F0B9FA00220521284617
:1053800007F0B9FA606B21F0CBFE854905464FF670
:10539000FF7A21F0D1FE49462846002207F00DFB96
:1053A00051462846002207F0F8FA00231A46022147
:1053B000284604F031F9606B15F008FAFA22054628
:1053C000114604F0C2F86FF013030A2228460521A3
:1053D00004F022F92846012115F004FA284632216A
:1053E00015F044FA05221146284615F0A3FA28467E
:1053F0004FF40032002107F05BFA28464FF40032E8
:10540000002107F05FFA05261E274FF0010B02214D
:10541000CDE9006132462846CDE902B7002316F0F7
:1054200061FF00230221CDE900613246194628467A
:10543000CDE902B716F056FF002264231146284634
:1054400015F051FA30461AF065FE00220146284652
:1054500015F067FB534B4FF4A02218600321284638
:1054600007F096FA2A4632214F48504D1CF094FA24
:105470002860E06A1EF076FC206421F051FE4C4961
:10548000606421F059FE00231A46606C092104F083
:10549000C3F8206C39464FF4AF7204F01DF8206C4D
:1054A0002822642104F051F8206C0022FF2107F02B
:1054B00041FA206C4146002207F02CFA206C31465C
:1054C000002207F084FA206C5146002207F065FAAA
:1054D000206C4946002207F070FA2B683549206C91
:1054E000072200F0C1FDE06A1EF03CFCE06421F000
:1054F00017FE3149206521F01FFE00231A46206D5A
:10550000092104F089F8E06C4FF4AF72C82103F070
:10551000E3FFE06C2822642104F017F8E06C00221D
:10552000FF2107F007FAE06C4146002207F0F2F98C
:10553000E06C3146002207F04AFAE06C5146002246
:1055400007F02BFA4946E06C002207F036FAE06AD1
:1055500023F09EFA5946A06432221EF0B3FBA06CE1
:1055600000220A211EF04AFBA06C39464FF4D27289
:1055700003F0B2FFA06C0A224FF4877103F0E5FF3D
:105580000E49A06C00231C2200F06EFDE06A05F0BD
:1055900011F8204605B0BDE8F04FFFF7B5BD00BFDC
:1055A0001FEC0208603400200D5200086434002013
:1055B00012EC0208C551000833EC020881510008C2
:1055C000D4F8020810B50D4C227864230132B2FBE6
:1055D000F3F103FB11220A4B2270186820B1094B2A
:1055E000196809B118F00FFE074B186828B1227826
:1055F0000649BDE8104021F0DABD10BD743400202A
:105600007C340020783400206C3400203AEC02080E
:1056100010B500F00FFD1C2810D1094C23686BB1A8
:10562000084B1B6853B1986840B11EF075FB0A2106
:1056300041432068BDE810401CF0C4BA10BD00BF53
:10564000703400206834002038B500F0F3FC0728DF
:105650000FD10D4B186860B10C4C0D4D23784BB138
:105660001CF0A6FA2B680B49186921F065FD002390
:10567000237038BD1CF0A1FA2B680749186921F086
:105680005BFD0123F4E700BF70340020AC00002074
:105690006834002018EC020812EC02082DE9F04FE3
:1056A000C34B85B004461860002002F05BFF4FF446
:1056B000F07220604FF4A07103F047FFE06A002110
:1056C00005F07FF920680022FF2107F033F92068F8
:1056D000002240F6292107F01DF90022114620681A
:1056E00007F02DF9206802F03DFF0A2260611146A3
:1056F00003F0F2FE4FF496721146606903F025FF45
:105700006069002105F05DF960690022022107F05F
:1057100035F942F2BE4860690022FF2107F029F9FD
:1057200060694146002207F014F9606900220F21E8
:1057300007F029F9606900220A2107F048F9606939
:105740000022FF2107F0F6F86069002241F6C5014A
:1057500007F0E0F8656900222846052107F0D0F837
:1057600028460022052107F0D0F82846002205210E
:1057700007F0BCF800220521284607F0BCF8606954
:105780008C4D18F0D5FC00231A460921286003F03F
:1057900043FFFA221146286803F0D7FE286818F064
:1057A000D3FC4FF487798723CDE900930646014661
:1057B00064232868002218F0FFFC0A270F230093B7
:1057C0000297ADF8048028683A463146042318F061
:1057D000E4FC48F65143ADF80430009731462868A0
:1057E0000223652218F0CCFC0520D5F800A01AF0A1
:1057F00091FC6FF0090231460346009250460422A4
:1058000018F0E2FC6C4BDFF8DCA11860286821F08E
:1058100087FC6A4B6A491A780646002521F0C7FCC6
:1058200051463046002207F0C8F82A46294630463D
:1058300007F0B3F82A462B460521304603F0ECFE6C
:10584000604B60691E6021F06BFC5F4906464FF6B5
:10585000FF7B21F071FC2A465146304607F0ADF837
:105860002A465946304607F098F82B462A463046D5
:10587000022103F0D1FE2A46012154481CF08CF885
:10588000534B186020681EF06DFAE06021F048FC70
:105890005049206121F050FC2B4620692A460921FD
:1058A00003F0BAFEE0684FF4AF721E2103F014FE5D
:1058B000E0682822642103F048FEE0682A46FF21C0
:1058C00007F038F8E0682A46414607F023F8E06818
:1058D0002A46052107F07BF8E0682A46594607F07A
:1058E0005CF8E0682A46514607F067F82B46072225
:1058F0003949E06800F0B8FB20681EF033FA6062B6
:1059000021F00EFC3549A06221F016FC2B46A06A5E
:105910002A46092103F080FE606A4FF4AF72C82165
:1059200003F0DAFD606A2822642103F00EFE606A4B
:105930002A46FF2106F0FEFF606A2A46414606F02D
:10594000E9FF606A2A46052107F041F8606A2A46A5
:10595000594607F022F82A465146606A07F02DF8AA
:10596000206823F095F83A46A06001211EF0AAF9BC
:10597000A0682A4605211EF041F9A0684FF4D272B2
:105980001E2103F0A9FDA0683A46494603F0DDFD5B
:105990001349A0682B461C2200F066FB206804F027
:1059A00009FE204605B0BDE8F04FFFF7A5BB00BFDC
:1059B000683400207C3400207834002074340020C7
:1059C0003AEC02086C3400203DEC0208C555000892
:1059D0007034002012EC02084956000833EC02082B
:1059E00011560008D4F8020837B50C460092CB884F
:1059F0008A88498805462088FCF7F6FE284603B0C9
:105A0000BDE8304019F04ABD38B50C4D0C4CFCF7E0
:105A100017FF4FF4486328460A4A0B4919F062FC05
:105A2000204619F03BFC094B2360094B6361E5609C
:105A30002046BDE8384019F063BC00BFD0660020A6
:105A400080340020D0340020D04D00204001E001FF
:105A5000E959000870B50C46FEF70EF9084E094DDD
:105A600038B1FEF72BF9084B9A89DB8A32802B80FC
:105A7000012033882380A0732B88638070BD00BF12
:105A8000EE660020EC6600200C00002010B5084CEB
:105A9000FEF76EF8204619F015FD0123237020460D
:105AA000044B636019F01EFD034B186010BD00BF6E
:105AB000F0660020555A0008106700200022C9B285
:105AC00006F08ABF09B203F0F0BC09B203F0D6BCFD
:105AD00038B50546006806F097FF044600222721E6
