:020000040800F2
:1000000000000220250D000871090008730900088E
:100010007509000877090008790900080000000048
:10002000000000000000000000000000AD530008C8
:100030007B0900080000000001540008615400081A
:10004000750D0008750D0008750D0008750D000888
:10005000750D0008750D00087D090008750D000874
:10006000750D0008750D0008750D0008750D000868
:10007000750D0008750D0008750D0008750D000858
:10008000750D0008750D0008750D0008750D000848
:10009000750D0008750D0008750D0008750D000838
:1000A000750D0008750D0008750D0008750D000828
:1000B00085090008750D0008750D0008750D00080C
:1000C000750D0008750D0008750D0008750D000808
:1000D000750D000891090008750D0008750D0008E0
:1000E000750D0008750D0008750D0008750D0008E8
:1000F000750D0008750D0008750D0008750D0008D8
:10010000750D0008750D0008750D0008750D0008C7
:10011000750D0008750D0008750D0008750D0008B7
:10012000750D0008750D0008750D0008750D0008A7
:10013000750D0008750D0008750D0008750D000897
:10014000750D0008750D0008750D00087DA40208E6
:100150009D090008750D0008750D0008750D000853
:10016000750D0008750D0008750D0008750D000867
:10017000750D000885A40208750D00080000000038
:08018000750D0008750D000863
:1001900010B5054C237833B9044B13B10448AFF3C1
:1001A00000800123237010BD100200200000000019
:1001B000CCDE020808B5034B1BB103490348AFF37B
:1001C000008008BD0000000014020020CCDE020800
:1001D00010F8012B11F8013B012A28BF9A42F7D0F1
:1001E000D01A7047034613F8012B002AFBD1181AC6
:1001F000013870470000000000000000000000000F
:1002000001F0FF01102A2BDB10F0070F08D010F8C7
:10021000013B013A8B422DD010F0070F42B3F6D1CB
:10022000F0B441EA012141EA014122F007047FF0E4
:1002300000070023F0E80256083C85EA010586EA3B
:10024000010685FA47F5A3FA87F586FA47F6A5FA77
:1002500087F68EB9EED1F0BC01F0FF0102F0070283
:1002600032B110F8013B013A83EA010313B1F8D12E
:100270000020704701387047002D06BF354603380F
:10028000073815F0010F07D1013015F4807F02BF48
:10029000013015F4C03F0130F0BC0138704700BF99
:1002A00053B94AB9002908BF00281CBF4FF0FF31DD
:1002B0004FF0FF3000F06AB9ADF1080C6DE904CEE3
:1002C00000F006F8DDF804E0DDE9022304B0704731
:1002D0002DE9F047089D0C46002B4ED194468C45E5
:1002E0008646B2FA82F262D94AB1C2F12003914045
:1002F00020FA03F30CFA02FC194300FA02FE4FEA5B
:100300001C471FFA8CF6B1FBF7F44FEA1E4307FBBC
:10031000141143EA014304FB06F199420AD91CEB8C
:10032000030304F1FF3080F01281994240F20F8103
:10033000023C6344591A1FFA8EF3B1FBF7F007FB36
:10034000101143EA014300FB06F69E420AD91CEB5A
:10035000030300F1FF3180F0FC809E4240F2F980FF
:10036000634402389B1B40EA044000211DB1D34086
:100370000022C5E90032BDE8F0878B4205D90DB1F6
:10038000C5E9000100210846F5E7B3FA83F1002929
:1003900046D1A34202D39042C0F0F080861A64EBAB
:1003A00003030120002DE6D0C5E90063E3E7002A3E
:1003B00040F09080A1EB0C044FEA1C481FFA8CF728
:1003C0000121B4FBF8F64FEA1E4308FB164443EA4A
:1003D000044307FB06F0984208D91CEB030306F11F
:1003E000FF3402D2984200F2CD8026461C1A1FFA32
:1003F0008EF3B4FBF8F008FB104443EA044300FB1F
:1004000007F79F4208D91CEB030300F1FF3402D227
:100410009F4200F2B0802046DB1B40EA0640A5E781
:10042000C1F120068B4022FA06F71F4320FA06FC92
:1004300004FA01F343EA0C03F44000FA01F8380C23
:100440004FEA1349B4FBF0FE1FFA87FC00FB1E4481
:1004500049EA04440EFB0CF9A14502FA01F20AD95B
:100460003C190EF1FF3A80F08480A14540F2818072
:10047000AEF1020E3C44A4EB09041FFA83F9B4FB6D
:10048000F0F300FB134449EA044403FB0CFCA445CD
:1004900007D93C1903F1FF3067D2A44565D9023B67
:1004A0003C4443EA0E40A0FB0293A4EB0C049C42A4
:1004B000CE469C4651D34ED055B1B8EB0E0364EBFB
:1004C0000C0404FA06F6CB401E43CC40C5E9006498
:1004D000002150E7C2F1200320FA03F10CFA02FCDC
:1004E00024FA03F394400C434FEA1C4800FA02FE3E
:1004F0001FFA8CF7B3FBF8F008FB1031230C43EA2A
:10050000014300FB07F1994208D91CEB030300F1FA
:10051000FF362CD299422AD9023863445B1AA4B21E
:10052000B3FBF8F108FB113344EA034401FB07F382
:10053000A34208D91CEB040401F1FF3613D2A342F5
:1005400011D902396444E41A41EA004139E704460A
:10055000F0E6084606E7C845AED2B9EB020E63EBFB
:10056000070C0138A8E73146EDE7034699E7304626
:10057000D4E7D6467FE7634402384DE70646234674
:1005800008460FE7023E634430E700BF704700BFF4
:1005900007B50B4B00220192196B41F480011963DE
:1005A0001B6B03F48003019311464420019B00F070
:1005B0005FFC442003B05DF804EB00F08BBC00BF8F
:1005C00000380240F0B514228BB00DEB0200002180
:1005D0002CF054FD0024324B00941A6B314F42F042
:1005E00004021A631A6B02F004020092009A01944A
:1005F0001A6B42F080021A631A6B02F080020192B9
:10060000019A02941A6B42F001021A631A6B02F00B
:1006100001020292029A03941A6B42F002021A63D8
:100620001A6B02F002020392039A04941A6B42F0CE
:1006300008021A631B6B03F0080322460493384632
:1006400006210125049B00F0F3FE4FF48813CDE949
:10065000055305A9022338460793062600F00AFE33
:1006600005A93846CDE90565CDE9075400F002FE3D
:100670004FF440721223CDE9052303210423CDE971
:1006800008130948079505A900F0F4FD2246214604
:10069000304600F0EDFB304600F01CFC0BB0F0BD26
:1006A00000380240000002400004024010B594B03F
:1006B000102200210AA82CF0E1FC1422002103A83A
:1006C0002CF0DCFC204B002101911A6C42F080528E
:1006D0001A641B6C03F080530193019B1B4B029126
:1006E0001A6842F480421A601B6803F48043029344
:1006F000029B01214FF480330224CDE908134FF40B
:1007000080031920CDE90E434FF4A873CDE91003FF
:10071000072308A81294139300F014FF08B172B6CF
:10072000FEE70F23CDE9033405904FF4A0524FF4B8
:100730008053052103A8CDE9062301F0DFF808B1B5
:1007400072B6FEE714B010BD0038024000700040E1
:1007500008B500F03BFBFFF7A9FFFFF733FFFFF7FA
:1007600017FF00F0AFF900F0C9F900F08DF800F0C4
:1007700051F900F083FA03F025FFFEE7F7B5124FB9
:1007800005460C468E18B44205D1284603B0BDE894
:10079000F04029F0F3BE2378F95C224601F0030112
:1007A00075B9012901D12033237013788DF80730F2
:1007B00001220DF107012846013429F021FFE2E76B
:1007C0000229F2D1203BEFE72255030830B500257E
:1007D00091B0ECB2204629F0ADFE78B140226946D6
:1007E000204629F0B3FE6946024604460020FFF782
:1007F000C5FF224669460120FFF7C0FF0DB111B0C9
:1008000030BD0125E5E7000010B50748012100F0E3
:1008100009FE0128044605D10348042100F00DFE1D
:10082000024B1C7010BD00BF000002400000002001
:1008300008B5064B834208D101201EF0F5FC00F0FC
:10084000DFFA034A13680133136008BD480700202C
:1008500014300120034B0360034B0B6080231360B3
:10086000704700BF8C0600208C040020034B0360FF
:10087000034B0B6080231360704700BF2C040020E3
:100880002C02002072B6FEE70E480F4A08B54FF45E
:100890008273C0E9002300234FF40072C0E90233E1
:1008A000C0E90433C0E90623C0E9083383620A23A0
:1008B000C36201F0DDF818B1BDE80840FFF7E2BF00
:1008C00008BD00BFEC0600200038004010B504460B
:1008D00088B01422002103A82CF0D0FB2268144B0E
:1008E0009A4223D103F50033002101911A6C11487B
:1008F00042F480421A641A6C02F480420192019A16
:1009000002911A6B42F002021A631B6B03F002039E
:100910000293029B4FF4604202230321CDE903239B
:100920000523CDE9061303A900F0A4FC08B010BD0F
:10093000003800400004024082B00C4B00210091BE
:100940005A6C42F480425A645A6C02F4804200921B
:10095000009A01911A6C42F080521A641B6C03F0E9
:1009600080530193019B02B0704700BF00380240E2
:10097000FEE7FEE7FEE7FEE7FEE77047012000F036
:1009800065BD0000014801F03BB900BF48070020E9
:10099000014801F0E7BC00BF38080020014800F022
:1009A000ABBB00BF900700204FF0FF3070474FF403
:1009B00000534B60002070470120704700207047B3
:1009C0000B4A116810B5034609B90A49116010684D
:1009D00009490A4C0344091B8B4206D92CF09CFBA5
:1009E0000C2303604FF0FF3010BD1360FCE700BF25
:1009F00044070020183601200000022000080000F3
:100A0000034AD2F8883043F47003C2F88830704744
:100A100000ED00E07FB51022002102A82CF02EFB93
:100A20001748A7224FF080410023C0E900124FF47D
:100A30007A72CDE90033C0E90323836080238361A8
:100A400001F0DEF908B1FFF71DFF4FF480530C48A9
:100A5000029302A901F00AFA08B1FFF713FF00237D
:100A600007486946CDE9003301F09AFA08B1FFF76B
:100A700009FF034801F086F807B05DF804FB00BFEA
:100A8000480700200368B3F1804F07B516D1002254
:100A900003F50E330192196C41F0010119641B6CCE
:100AA00003F00103019311461C20019B00F0E0F9C3
:100AB0001C2003B05DF804EB00F00CBA03B05DF845
:100AC00004FB00000B480C4A08B54FF4E133C0E9C1
:100AD000002300230C22C0E90233C0E9052303618F
:100AE000C36101F05BFB18B1BDE80840FFF7CABE67
:100AF00008BD00BF38080020001001400B480C4A18
:100B000008B54FF4E133C0E9002300230C22C0E90B
:100B10000233C0E905230361C36101F03FFB18B153
:100B2000BDE80840FFF7AEBE08BD00BFF0070020DB
:100B3000001401402DE9F04314228BB00646002139
:100B40000DEB02002CF09AFA3368444A93425FD1CD
:100B5000434B4448002500955A6C42F010025A64F9
:100B60005A6C02F010020092009A01951A6B42F042
:100B700001021A631A6B02F001020192019A0295B6
:100B80001A6B42F002021A631B6B03F00203072484
:100B900002934FF480674FF002094FF0030805A954
:100BA000CDE90884029BCDE9057900F063FB402381
:100BB0002D48099405A92D4CCDE90539CDE90758F3
:100BC00000F058FB2A484FF00063C4E900034FF4DB
:100BD00080332046C4E90255C4E90475C4E90655CA
:100BE000C4E9083500F0BAF908B1FFF74BFE00225E
:100BF00011462520F463A66300F03AF9252000F0A1
:100C000069F91848042100F018FC0BB0BDE8F08326
:100C1000184A9342F9D1124B1748002103915A6C9C
:100C200042F020025A645A6C02F020020392039AA6
:100C300004911A6B42F004021A631B6B03F0040365
:100C40000493049BC0220223CDE90523032108233A
:100C5000CDE9081305A900F00DFBD6E7001001400F
:100C600000380240000002400004024090070020CB
:100C70008864024000140140000802400B4808B597
:100C80004FF0A0430360042303714FF40073C3804B
:100C900002234372002343810373C38100F0E2FB0C
:100CA00018B1BDE80840FFF7EDBD08BD8008002081
:100CB00030B5044689B01422002103A82CF0DEF9D7
:100CC0002368B3F1A04F26D1144C15480025019597
:100CD000236B43F001032363236B03F001030193B0
:100CE000019B4FF4C0520223CDE9032303210A23C1
:100CF000CDE9061303A900F0BDFA636B43F080034E
:100D000063630295636C43F480436364636C03F430
:100D100080430293029B09B030BD00BF00380240FF
:100D200000000240DFF834D0FFF76AFE0C480D499E
:100D30000D4A002302E0D458C4500433C4188C4236
:100D4000F9D30A4A0A4C002301E013600432A2429C
:100D5000FBD32CF0E7F9FFF7FBFC70470000022003
:100D6000000000201002002054560308100200204A
:100D700018360120FEE7000038B5114B1A784FF401
:100D80007A73B3FBF2F30F4A05461068B0FBF3F039
:100D900000F0AEF8044688B90F2D0FD80246294658
:100DA0004FF0FF3000F064F8074B4FF0E0221D6079
:100DB000136923F002031361204638BD0120FCE7CC
:100DC00008000020040000200C00002008B50B4B98
:100DD0001A6842F400721A601A6842F480621A605B
:100DE0001A6842F480721A60032000F02FF80F2076
:100DF000FFF7C2FFFFF7A0FD002008BD003C024046
:100E0000034A044B11681B780B441360704700BF02
:100E1000640D002008000020014B1868704700BFD7
:100E2000640D002038B50446FFF7F6FF631C1CBFB5
:100E3000054B1B78054618BFE418FFF7EDFF431B71
:100E4000A342FAD338BD00BF080000200749CA6892
:100E500022F4E0620302120403F4E063120C134371
:100E600043F0BF6343F40033CB60704700ED00E014
:100E7000164B30B5DC68C4F30224C4F10703251D0A
:100E8000042B28BF0423062D4FF0FF358CBF033CF5
:100E9000002405FA03F321EA0303A54022EA050230
:100EA000A340002843EA0203ACBF00F16040084AB7
:100EB0004FEA0313B8BF00F00F00DBB2AABF00F582
:100EC0006140135480F8003330BD00BF00ED00E0F6
:100ED00014ED00E0002807DB044A4109012300F07B
:100EE0001F00834042F82130704700BF00E100E05E
:100EF0000138B0F1807F0BD24FF0E023054A5861F2
:100F0000F02182F823100020072298611A617047AF
:100F10000120704700ED00E04FF0E02304281A693B
:100F20000CBF42F0040222F004021A617047000074
:100F3000036810B5084C0246D9B210391820B1FB2D
:100F4000F0F0205CD06523F47F7020F003005F296F
:100F500088BF0430906510BD16DF020870B50446E6
:100F6000FFF75AFF0546002C60D0022384F8353085
:100F70002268002384F83430136823F001031360DF
:100F800022681368D8072ED413683248A169184024
:100F9000D4E901352B43E5682B4325692B4365696B
:100FA0002B43E5690B432B43256A2B430343606ABC
:100FB000042802BFD4E90B5635432B431360536911
:100FC000042823F0070343EA000335D1A06AE56A49
:100FD00003438DB391B9012820D030F002012BD109
:100FE000E90129D51DE0FFF717FF401B0528C7D9E8
:100FF00020230320636584F8350070BDB1F5005FE0
:1010000016D1032818D801A151F820F023100008A8
:10101000E10F0008231000081D100008B5F1C07F83
:101020000AD140236365012384F835300120E4E7C9
:101030000228F6D90328D3D053612046FFF778FF62
:10104000E26D3F239340836000200123606584F8B4
:101050003530D2E73F8010F070B50446866DFFF75B
:10106000DBFE94F83530022B054606D080236365FD
:101070000120002384F8343070BD23681A6822F000
:1010800016021A605A6922F080025A61226C0AB96B
:10109000A26C1AB11A6822F008021A601A6822F0CB
:1010A00001021A602368186810F0010007D1E26D90
:1010B0003F239340B360012384F83530D9E7FFF72D
:1010C000ABFE401B0528EDD920230320636584F87F
:1010D0003500CEE790F83530022B03D080234365EE
:1010E000012070470268052380F83530136823F02B
:1010F0000103136000207047F7B5002301935C4B98
:10110000856D1F68C36D2E6808229A4032420446DE
:101110000CD001680868400708D5086820F0040072
:101120000860AA60626D42F00102626501229A4085
:10113000324208D021684969090641BFAA60626D40
:1011400042F00202626504229A40324208D02168CD
:101150000968880741BFAA60626D42F004026265B7
:1011600010229A40324210D02368196809070CD522
:10117000AA601A68500337D51B68190301D4236C81
:1011800000E0A36C0BB120469847E16D20228A4015
:1011900032423AD023681868C60636D5AA6094F859
:1011A0003520052A1A6827D122F016021A605A69DA
:1011B00022F080025A61226C0AB9A26C1AB11A6834
:1011C00022F008021A603F238B40AB60012384F8B1
:1011D0003530002384F83430236D002B45D0204671
:1011E00003B0BDE8F04018471A68D2055EBF1A6820
:1011F00022F008021A60C2E7500327D51B681903C2
:1012000031D4636C0BB120469847636D6BB3636D4B
:10121000DA0719D522684FF41653B7FBF3F7052305
:1012200084F83530136823F001031360019B013308
:10123000BB42019302D81368DB07F7D4012384F87B
:101240003530002384F83430E36CC6E71A6812F4B2
:10125000807208D1196821F010011960012384F807
:10126000353084F83420E36BCCE703B0F0BD00BF29
:10127000040000202DE9F74FDFF8A491664A00230F
:101280000D6801249C4004EA0506AC4340F0AF80A1
:101290004D68032705F003044FEA430807FA08FCEA
:1012A000671E012F6FEA0C0C34D8876807EA0C0E12
:1012B000CF6807FA08F747EA0E078760476827EA0A
:1012C000060EC5F300179F4047EA0E074760C76840
:1012D00007EA0C0E8F6807FA08F747EA0E07022C98
:1012E000C76019D14FEAD30A00EB8A0A03F0070B53
:1012F000DAF820704FEA8B0B4FF00F0E0EFA0BFE50
:1013000027EA0E0E0F6907FA0BF747EA0E07CAF82D
:10131000207001E0032CDAD1076804FA08F407EA28
:101320000C073C4315F4403F046060D00024019456
:10133000D9F8444044F48044C9F84440D9F84440C2
:1013400023F0030707F1804704F4804407F59C3736
:10135000019403F0030C019CD7F808E04FEA8C0CD1
:101360000F2404FA0CF42EEA040E2C4CA04245D0B3
:1013700004F58064A04243D004F58064A04241D0CB
:1013800004F58064A0423FD004F58064A0423DD0C3
:1013900004F58064A0423BD004F58064A04239D0BB
:1013A00004F58064A04214BF0824072404FA0CF456
:1013B00044EA0E04BC609468F74315F4801F0CBF28
:1013C0003C4034439460D46815F4001F0CBF3C408B
:1013D0003443D460546815F4003F0CBF3C403443A0
:1013E00054601468ED0354BF3C403443146001332F
:1013F000102B7FF445AF03B0BDE8F08F0024D5E794
:101400000124D3E70224D1E70324CFE70424CDE766
:101410000524CBE70624C9E7003C01400000024058
:10142000003802400369194214BF012000207047B0
:101430000AB1816170470904FBE7436901EA0302CD
:1014400021EA030141EA024181617047044A51697E
:10145000014208B502D05061FFF7D6F908BD00BFC0
:10146000003C0140F7B5044610B390F89534056888
:1014700003F0FF021BB980F89424FFF719FC032343
:10148000B5F1A04F84F8953404BF0023A371206800
:1014900001F087F9237C8DF80030251D95E80E00BA
:1014A000206801F03AF9014630B1022384F89534FE
:1014B0000125284603B0F0BD206801F078F9002826
:1014C000F3D1267904F1140301270246C1B28E42FA
:1014D00003F124031BD8002104F515730A46C8B292
:1014E000864203F1240320D8237C8DF8003095E850
:1014F0000E00206801F0D6F905460028D5D1012359
:101500006074206884F8953401F086FAD1E723F8F6
:101510000A0C43E9072203F8237C03F8241C03F890
:10152000202C43F8142C0130D0E743E9072203F8BC
:10153000232C03F8240C03F8202C43F8142C01313D
:10154000CDE700002DE9F341044640B30368DE0710
:1015500010D423689D075BD42368190700F19D8090
:1015600023685A0700F1BD80A369002B40F0248155
:1015700000202CE08D4B9A6802F00C02042A07D060
:101580009A6802F00C02082A0BD15B68590208D550
:10159000864B1B689A03DCD56368002BD9D10120E8
:1015A00015E06368814DB3F5803F13D12B6843F498
:1015B00080332B60FFF730FC7C4E054633689B037D
:1015C000C7D4FFF729FC401B6428F7D9032002B0D9
:1015D000BDE8F081B3F5A02F04D12B6843F480233C
:1015E0002B60E3E72A6822F480322A602A6822F41A
:1015F00080222A60002BDDD1FFF70EFC06462B6807
:101600009F03A6D5FFF708FC801B6428F7D9DDE708
:10161000664B9A6812F00C0F07D09A6802F00C0221
:10162000082A11D15B685D020ED4604A13689907DD
:1016300002D5E368012BB2D11368216923F0F803C6
:1016400043EAC103136087E7E268594BB2B1012254
:101650001A60FFF7E1FB554D06462B689B0707D53F
:101660002B68226923F0F80343EAC2032B6073E777
:10167000FFF7D2FB801B0228EFD9A7E71A60FFF71C
:10168000CBFB4A4E054633689F077FF565AFFFF7F2
:10169000C3FB401B0228F6D998E76269444B82B12C
:1016A0000122C3F8802EFFF7B7FB404E0546736F4B
:1016B0009B073FF555AFFFF7AFFB401B0228F6D95C
:1016C00084E7C3F8802EFFF7A7FB384E0546736FFB
:1016D0009F077FF545AFFFF79FFB401B0228F6D918
:1016E00074E7324B1A6C12F0805228D101921A6CB6
:1016F00042F080521A641B6C03F080530193019BEB
:1017000001272C4D2B68D8051BD5A368274D012B2D
:1017100027D12B6F43F001032B67FFF77DFB234E8F
:10172000054641F28838336F9A0739D5002F3FF4C8
:101730001BAF1E4A136C23F08053136414E7002779
:10174000DFE72B6843F480732B60FFF765FB0646E9
:101750002B68D905D9D4FFF75FFB801B0228F7D986
:1017600034E7052B04D12B6F43F004032B67D0E73C
:101770002A6F22F001022A672A6F22F004022A67E8
:10178000002BCAD1FFF748FB41F2883806462B6F81
:101790009B07CBD5FFF740FB801B4045F7D915E7EA
:1017A000FFF73AFB401B4045BDD90FE70038024028
:1017B0000000474200700040374DAA6802F00C025A
:1017C000082A3ED0022B354B4FF000021A662BD16F
:1017D000FFF722FB06462B6899011FD4D4E9073294
:1017E0001343626A43EA8213E26A43EA0263A26A2B
:1017F0005208013A43EA02436B60284B264D01220E
:101800001A66FFF709FB04462B689A013FF5B0AE54
:10181000FFF702FB001B0228F6D9D7E6FFF7FCFA18
:10182000801B0228D7D9D1E6FFF7F6FA04462B68C9
:101830009B017FF59DAEFFF7EFFA001B0228F6D95A
:10184000C4E6012B3FF4ABAE6B68E26903F48001A0
:1018500091427FF4A4AE216A03F03F028A427FF4F2
:101860009EAE616A47F6C0721A40B2EB811F7FF4E8
:1018700096AEA26A520803F44031013AB1EB024F2E
:101880007FF48DAEE26A03F07063B3EB026F14BFB6
:10189000012000209BE600BF0038024000004742C4
:1018A000134908B58B6803F00C03042B1CD0082BDC
:1018B0001CD14A684B68496813F4800314BF0D4873
:1018C0000D48C1F3881118BF002302F03F02A1FBAD
:1018D0000001FEF7E5FC064B5B68C3F301430133EF
:1018E0005B00B0FBF3F008BD0248FCE70248FAE7F2
:1018F0000038024040787D010024F4002DE9F041D9
:101900000D46044610B90120BDE8F081434B1A682A
:1019100002F007028A4228D321688F072DD4C80716
:1019200040D43E4B1A6802F00702AA4265D82268EA
:1019300051076BD4130707D5394A2169936823F4FB
:10194000604343EAC1039360FFF7AAFF344B354A73
:101950009B68C3F30313D35CD840334B1860334BFD
:101960001868FFF709FA0020CEE7CAB21A701B68A0
:1019700003F007038B42C6D1CEE7294B11F0040FC9
:101980001EBF9A6842F4E0529A600E0742BF9A68FE
:1019900042F460429A609A68A06822F0F002024322
:1019A0009A60BCE762681E4B012A1CD11B6813F4C5
:1019B000003FA8D01A4EB36823F003031343B3606B
:1019C000FFF72AFA41F288380746B368626803F0E5
:1019D0000C03B3EB820FA4D0FFF71EFAC01B4045E7
:1019E000F3D9032090E7911E01291B6802D813F058
:1019F000007FDEE713F0020FDBE7EAB21A701B6824
:101A000003F00703AB427FF47EAF90E70449E06840
:101A10008B6823F4E05303438B608BE7003C024068
:101A20000038024006DF0208040000200C000020FD
:101A3000044B054A9B68C3F38223D35C034A1068B6
:101A4000D840704700380240FEDE02080400002043
:101A5000044B054A9B68C3F34233D35C034A1068C6
:101A6000D840704700380240FEDE02080400002023
:101A700010B50446002855D0436A002B4ED1426869
:101A8000B2F5827F00D0C3610023A36294F8513085
:101A900003F0FF0223B984F850202046FEF716FF1A
:101AA0002168A068A269022384F851300B6823F0F2
:101AB00040030B60636800F4044003F48273034343
:101AC000E06800F400600343206900F00200034373
:101AD000606900F00100034302F400700343E06911
:101AE00000F038000343206A00F080000343A06A3E
:101AF00000F4005003430B60636A120C03F0100300
:101B000002F004021A434A60CB6923F40063CB61FC
:101B100000200123606584F8513010BD0023C0E926
:101B20000433B1E70120F8E770B50E4615460446C8
:101B300028B390F8493003F0FF021BB980F8482021
:101B400001F056F804F10801206800F055FDA26884
:101B50002068314600F082FD236BA2686068294648
:101B600000F09AFD2268A16852F8213043F0010389
:101B700042F82130012384F84930002070BD012053
:101B8000FCE7000090F83D30012B30D1022380F8B3
:101B90003D300368DA6842F00102DA60154A934288
:101BA0001AD0B3F1804F17D0A2F57C42934213D0E4
:101BB00002F5806293420FD002F5806293420BD00F
:101BC00002F57842934207D002F57052934203D057
:101BD000A2F59432934204D19A6802F00702062AD1
:101BE00003D01A6842F001021A60002070470120F9
:101BF000704700BF00000140704770477047704752
:101C0000036870B5DD681E69B10704460DD5AA07E3
:101C10000BD56FF002021A61012202779B699B07C4
:101C200069D0FFF7EAFF00232377710710D56A0711
:101C30000ED523686FF004021A61022222779B6995
:101C400013F4407F20465CD0FFF7D7FF00232377B3
:101C500033070FD528070DD523686FF008021A61E6
:101C600004222277DB699907204650D0FFF7C5FF91
:101C700000232377F20610D5EB060ED523686FF00C
:101C800010021A6108222277DB6913F4407F204694
:101C900043D0FFF7B2FF00232377F00708D5E90709
:101CA00006D523686FF001021A612046FEF7C0FDD9
:101CB000320608D52B0606D523686FF080021A611C
:101CC000204600F0ACF9700608D5690606D52368F1
:101CD0006FF040021A612046FFF791FFB20622D54D
:101CE000AB0620D523686FF0200220461A61BDE8BC
:101CF000704000F093B9FFF77FFF2046FFF77EFFAB
:101D000091E7FFF779FF2046FFF778FF9EE7FFF79F
:101D100073FF2046FFF772FFAAE7FFF76DFF20462B
:101D2000FFF76CFFB7E770BD334A0368904212D0EB
:101D3000B0F1804F0FD0A2F57C4290420BD002F55B
:101D40008062904207D002F58062904203D002F593
:101D50007842904219D14A6823F070031343264A0F
:101D6000904229D0B0F1804F26D0A2F57C4290421B
:101D700022D002F5806290421ED002F5806290422D
:101D80001AD002F57842904216D01C4A904213D0E5
:101D900002F5806290420FD002F5806290420BD033
:101DA000A2F59832904207D002F58062904203D0AB
:101DB00002F58062904203D1CA6823F44073134352
:101DC0004A6923F08003134303608B68C3620B6886
:101DD0008362094B984203D003F58063984201D196
:101DE0000B690363012343610369DB0742BF036996
:101DF00023F00103036170470000014000400140EF
:101E000010B5044630B390F83D3003F0FF021BB923
:101E100080F83C20FEF736FE0223206884F83D302F
:101E2000211DFFF781FF012384F84630002084F84C
:101E30003E3084F83F3084F8403084F8413084F8F4
:101E4000423084F8433084F8443084F8453084F8D4
:101E50003D3010BD0120FCE710B584680A4324F42E
:101E60007F4442EA03222243826010BD38B590F8D5
:101E70003C30012B04464FF0020000F08E8084F8C5
:101E80003D000122206884F83C20836823F47F43CE
:101E900023F0770383600B68602B4FD032D8402B40
:101EA00064D016D8202B0DD00AD833F0100109D0F9
:101EB000012384F83D30002384F83C30104638BDBF
:101EC000302BF5D1826822F07002134343F00703F0
:101ED00028E0502BECD14A68CD68016A036A23F0F0
:101EE00001030362836921F00A0123F0F00343EA4E
:101EF00005130A4383610262836823F0700343F091
:101F000057030FE0B3F5805F0DD0B3F5005F0CD041
:101F1000702BCDD1CB68D1E90121FFF79DFF8368FC
:101F200043F0770383600022C2E7CB68D1E9012147
:101F3000FFF792FF836843F48043F3E7036A026A82
:101F40004D68C96822F010020262826923F0A00382
:101F500022F4704243EA051342EA013282610362CD
:101F6000836823F0700343F06703DBE74A68CD68BA
:101F7000016A036A23F001030362836921F00A0105
:101F800023F0F00343EA05130A4383610262836886
:101F900023F0700343F04703C4E702468EE70000D6
:101FA00030B590F83C30012B02464FF0020032D0A1
:101FB000136882F83D005C680D68986824F070042E
:101FC0002C435C60144CA3421AD0B3F1804F17D05D
:101FD000A4F57C44A34213D004F58064A3420FD03F
:101FE00004F58064A3420BD004F57844A34207D0E3
:101FF00004F57054A34203D0A4F59434A34204D151
:10200000496820F08000014399600123002082F894
:102010003D3082F83C0030BD000001407047704701
:10202000026802F10C0353E8003F23F490730C3272
:1020300042E8003102680029F2D102F1140353E8AA
:10204000003F23F0010302F1140C4CE80031002999
:10205000F3D1036B012B0BD102F10C0353E8003FCA
:1020600023F0100302F10C0C4CE800310029F3D1ED
:10207000202380F842300023036370470268C16860
:1020800038B5136923F440530B4313610546836845
:102090000069D168034368690343E86921F4164184
:1020A00021F00C0103430B43D3605369A96923F466
:1020B00040730B4353611F4B9A4203D003F5806377
:1020C0009A4224D1FFF7C4FCEA691921B2F5004F06
:1020D000D5E90043A0FB01011CD1DA184FF000053F
:1020E00045EB0503FEF7DCF86422B0FBF2F102FBDE
:1020F0001103DB003233B3FBF2F303F007025B00A2
:1021000002EB011203F4F8731344A36038BDFFF728
:102110008FFCD9E79A009B0FFEF7C2F86422B0FB50
:10212000F2F102FB11031B013233B3FBF2F303EBB9
:102130000113EAE700100140F7B505460C461746C3
:102140001E462A68136834EA030301D1002021E007
:10215000701CF7D0FEF760FEC01B86421CD3DEB1B8
:102160002B68DA685107ECD5802CEAD0402CE8D0F7
:102170001A681207E5D5002401941A6801925B6879
:1021800001932846019BFFF74BFF08236B6485F8FA
:102190004040012003B0F0BD0320FBE710B504462A
:1021A00048B390F8413003F0FF021BB980F840209B
:1021B000FEF7C0FC2268242384F84130D36823F45E
:1021C0000053D3602046FFF759FF23681A6922F4B1
:1021D00090421A615A6922F02A025A61DA6842F47E
:1021E0000052DA6000202023606484F8413084F8D3
:1021F0004230606310BD0120FCE72DE9F8439846AA
:1022000090F84130202B04460E4617463FD1002956
:102210003FD0002A3DD021230025456480F841307D
:10222000FEF7FAFDA368A784B3F5805F8146E784D3
:1022300003D123690BB935461E46E38C9BB253B9D3
:1022400043464A4640212046FFF776FF202350B9F7
:1022500084F841300AE043464A4680212046FFF791
:102260006BFF28B1202384F841300320BDE8F883B8
:1022700022684EB935F8023BC3F308035360E18C82
:10228000013989B2E184D8E716F8013BF6E702206C
:10229000ECE70120EAE770477047704708B5806BAC
:1022A0000023C385C384FFF7F8FF08BD704790F88B
:1022B0004230222B07B542D181680268836AB1F5AA
:1022C000805F3FD1016900293FD15268C2F3080203
:1022D00023F8022B8362C38D013B9BB2C385002B85
:1022E0002DD10268D16821F02001D160D16821F49C
:1022F0008071D160516921F001015161202280F883
:1023000042204363026B012A026828D1036302F171
:102310000C0353E8003F23F0100302F10C0C4CE8CF
:1023200000310029F3D11368DB0605D5019113684C
:10233000019353680193019B818DFFF7B7FF03B0B1
:102340005DF804FB39B9016929B95268D2B21A7033
:10235000836A0133BEE7526802F07F02F7E7FFF7B6
:102360009BFFECE703681A6873B51607D9685D69C7
:10237000044608D1960668D58D0666D502B0BDE83C
:102380007040FFF794BF05F0010001F4907505431C
:102390005BD0D60705D5CD0542BF636C43F0010382
:1023A0006364530704D518B1636C43F0020363649C
:1023B000960704D518B1636C43F0040363641507F2
:1023C00007D501F0200303431EBF636C43F00803ED
:1023D0006364636C002B32D0920604D58B0602D561
:1023E0002046FFF764FF26687369626C03F04003C0
:1023F00002F0080253EA0205204622D0FFF710FE41
:1024000073695E0618D5226802F1140353E8003F91
:1024100023F04003143242E800310029F3D1E06B8D
:1024200050B1744B0365FEF755FE40B1E06B036D90
:1024300002B0BDE8704018472046FFF72EFF02B0FB
:1024400070BDFFF72AFF6564F9E7206B012840F0B3
:102450009580D50640F19280C80640F18F80002219
:1024600001921A6801925A680192019A5A695206B9
:102470004ED5E16B0A68526892B2002ADFD0A08D77
:102480009042DCD9E285CA69B2F5807F36D003F18B
:102490000C0252E8002F22F4807203F10C0040E895
:1024A00000210029F3D103F1140252E8002F22F099
:1024B000010203F1140040E800210029F3D103F1E7
:1024C000140252E8002F22F0400203F1140040E809
:1024D00000210029F3D1202284F84220216303F156
:1024E0000C0252E8002F22F0100203F10C0040E829
:1024F00000210029F3D1E06BFEF7AEFD02236363F8
:10250000E38DA18DC91A89B22046FFF7CFFE96E769
:10251000E28DE08DA18D80B292B200288FD0891A11
:1025200089B200298BD003F10C0252E8002F22F46B
:10253000907203F10C0545E800200028F3D103F167
:10254000140252E8002F22F0010203F1140545E8BD
:1025500000200028F3D1202284F84220206303F1D8
:102560000C0252E8002F22F0100203F10C0545E89E
:1025700000200028F3D102236363C5E7160628D59F
:102580000D0626D594F84120212A7FF458AFA16882
:10259000226AB1F5805F17D12169A9B932F8021B0F
:1025A000C1F3080159602262E28C013A92B2E284DE
:1025B000002A7FF444AFDA6822F08002DA60DA6839
:1025C00042F04002DA603AE7511C216212785A6008
:1025D000EAE750067FF533AF4A067FF530AFDA6899
:1025E00022F04002DA60202384F841302046FFF7D1
:1025F00052FE24E79D2200080A6850F8223023F09A
:10260000010370B58C6840F822304B68CE6850F8F2
:102610002250234333430E6933434E693343CE691B
:1026200033430E6A33434E6A33438E6A3343CE6A72
:1026300033430E6B33438E69C96B33430B430649F7
:1026400029400B43A4F108014C424C4143EA841356
:1026500040F82230002070BD8000F0FF0B6810B5FC
:102660008C6923434C6843EA04138C6843EA0423CF
:10267000CC6800EB820243EA04430C694969506864
:10268000013C43EA0453023943EA016300F040414C
:102690000B435360002010BDB3F5804F30B514D10B
:1026A0008D690B6850F822402B434D6843EA0513AF
:1026B0008D68C96843EA052343EA01430449214080
:1026C0000B4340F82230002030BD6FF07043F8E734
:1026D0000000F0CF82B0002302460193019B01333A
:1026E0000193019BB3F1706F15D81369002BF5DAD4
:1026F00000230193136943F001031361019B01332C
:102700000193019BB3F1706F05D8106910F00100BF
:10271000F4D102B070470320FBE784B038B505ADB3
:1027200085E80E009DF81930012B044627D1836BF4
:1027300023F480338363C36823F4840323F04003CA
:10274000C360C36823F44013C3609DF82030012B9D
:1027500002BFC36843F48013C360FFF7BBFF9DF85B
:102760001630012B07D1A36843F00603A360A368CA
:1027700043F02003A360BDE8384004B07047C3684D
:1027800043F04003C360FFF7A5FF9DF81D3023B958
:10279000A36B43F48033A363E1E7A36B23F480339B
:1027A000F9E7836823F0010383600020704738B5A0
:1027B000C368012923F0C04305460C46C36014D109
:1027C000C36843F00053C36000240A20FEF72AFBCD
:1027D0006B69D90704F10A0402D4C82CF5D1C824C6
:1027E000A4F1C8035842584138BD71B9C36843F0D9
:1027F0008043C3600A20FEF715FB6B69DA0704F11A
:102800000A04EDD5C82CF5D1E9E70120ECE782B048
:10281000002302460193019B01330193019BB3F115
:10282000706F15D81369002BF5DA8901002341F088
:10283000200101931161019B01330193019BB3F1CD
:10284000706F05D8106910F02000F4D102B0704705
:102850000320FBE782B0002302460193019B013372
:102860000193019BB3F1706F13D81369002BF5DA54
:102870000023019310231361019B01330193019BFA
:10288000B3F1706F05D8106910F01000F4D102B0E8
:1028900070470320FBE7D0F800381943C0F8001850
:1028A0000020704784B02DE9F843044609A880E869
:1028B0000E0000239DF824609DF82E50194603F168
:1028C000400204EB820201330F2B5160F7D104F573
:1028D0000067002D6CD17B6843F002037B60A36B23
:1028E00043F40013A363A36B23F40023A363A36B3C
:1028F00023F48023A3630023C4F8003E9DF829300D
:10290000012B5FD19DF82710002959D12046FFF7F0
:10291000C2FF10212046FFF77AFF01462046FFF74D
:1029200099FF0843C0B2002300383B6118BF012063
:102930007B6104F51062FB6119464FF0904C4FF03B
:10294000006E4FF67F389E423ED8002204F5306379
:1029500011464FF0904C4FF0006E4FF67F38964284
:1029600045D83B6923F480733B610023A3616FF07A
:10297000804363619DF826301BB9A36943F01003BF
:10298000A361A269234B1343A3619DF82A301BB1B5
:10299000A36943F00803A361012D01BFA36943F0BC
:1029A000804343F00403A361BDE8F84304B07047DB
:1029B000A36B23F40013A363A36B43F4002399E7F1
:1029C0001946A3E70321A1E7D2F80090B9F1000F5F
:1029D0000BDA3BB9C2F800E011610133C2F808809C
:1029E0002032B0E7C2F800C0F6E71160F4E7D3F890
:1029F0000090B9F1000F0BDA3AB9C3F800E01961A1
:102A00000132C3F808802033A9E7C3F800C0F6E715
:102A10001960F4E700383C80D0F8003E23F003034F
:102A2000C0F8003ED0F8043843F00203C0F8043880
:102A30000020704782B0074AADF80600BDF80630A6
:102A40009BB2ADF80630BDF806309BB2A2F8FE305E
:102A500002B0704700FF076082B0074AADF8060079
:102A6000BDF806309BB2ADF80630BDF806309BB21B
:102A7000A2F8003102B0704700FF0760054BB3F8C1
:102A8000003182B09BB2ADF80630BDF8060080B2CE
:102A900002B0704700FF0760024B1A89024BA3F88F
:102AA000FE207047680D002000FF076038B50B4D11
:102AB00004466889FFF7BEFF200AFFF7CDFFE0B2AA
:102AC000FFF7CAFFA889FFF7B5FF080AFFF7C4FFA1
:102AD000BDE83840C8B2FFF7BFBF00BF680D002097
:102AE00010B533498B79012B07D107280ED8DFE8C1
:102AF00000F01B271F1D250D21230138062805D8AE
:102B0000DFE800F01C1A181614121E0000238A8831
:102B100045F21050824215D047F29670824201D1A0
:102B200043F0080336220FE0A023F0E76023EEE72E
:102B30002023ECE7C023EAE74023E8E78023E6E729
:102B4000E023E4E74FF458521A48A0F8FE20A0F81A
:102B500000319B060A88488804D5824204D2088046
:102B60004A8001E08242FAD84889FFF763FF0020DB
:102B7000FFF772FFFFF770FF0C88013CC4F30F20D2
:102B8000FFF76AFFE0B2FFF767FF8889FFF752FFA0
:102B90000020FFF761FFFFF75FFF49880139C1F3AC
:102BA0000F20FFF759FFBDE81040C8B2FFF754BF30
:102BB000680D002000FF07600C4B002898714FF053
:102BC0002C0018814FF02A0058814FF02B000BBFCA
:102BD0004FF4A0714FF4F0714FF4F0724FF4A07203
:102BE0009881002019805A80FFF77ABF680D002075
:102BF00010B58AB02C4B2D4C00220092996B41F0FD
:102C000001019963996B01F0010100910099019212
:102C1000196B41F008011963196B01F0080101916A
:102C200001990292196B41F010011963196B01F0BF
:102C30001001029102990392196B41F0200119636E
:102C4000196B01F020010391039904921A6B42F071
:102C500040021A631B6B03F0400304934CF233727F
:102C6000049B0223CDE9052301210323CDE90713AA
:102C700020460C2305A90993FEF7FCFA4FF6807352
:102C800005A90B480593FEF7F5FA4FF4005305A983
:102C900020460593FEF7EEFA802305A9204605930A
:102CA000FEF7E8FA0AB010BD00380240000C0240FE
:102CB0000010024038B5094B00211A885C8805468F
:102CC00008465443FFF7F2FEFFF7E6FE044BA1422D
:102CD00000D138BDA3F800510131F8E7680D00209C
:102CE00000FF07602DE9F843141A5D1A013401351D
:102CF000114F81468846A4B2ADB20026AE4201D340
:102D0000BDE8F88306EB080189B24846FFF7CEFE1E
:102D1000FFF7C2FE089A06FB04F302EB430300220E
:102D200091B28C4202D80136B6B2E7E733F8021B03
:102D3000A7F800110132F3E700FF07602DE9F04327
:102D400095B000243D4B00941A6B3D48DFF8FC9091
:102D500042F008021A631B6B03F0080301254FF4CD
:102D60008056009301A90327CDE90165009B0395D7
:102D70000497FEF77FFA4FF400633148019301A9ED
:102D8000FEF778FA2F480C944FF02043036003F5C8
:102D90008273C0E901344FF48043C0E90C344FF42E
:102DA0008013C3630F23CDE9063409230DAA06A9B6
:102DB000C0E90946CDE90D344FF0100808233C2640
:102DC0000F93C0E90344C0E90584C461C46284630D
:102DD000089610941394FEF7A7FE3220FEF722F80F
:102DE000C9F8AC520A20FEF71DF8C9F8AC423220EF
:102DF000FEF718F8C9F8AC52C820FEF713F8D42033
:102E0000FFF718FEFFF73AFEFFF738FEFFF736FE32
:102E10000146FFF733FEDFF8389040EA012189B21E
:102E20000948A9F8041029F093FFB9F8042045F2E5
:102E300010339A4240F032870CE000BF0038024065
:102E4000000C0240780D00201EDF02080080414285
:102E5000680D0020ED20FFF7EDFD2846FFF7FCFD93
:102E6000FE20FFF7F9FDEE20FFF7E4FDDE20FFF77F
:102E7000F3FD2120FFF7F0FDF120FFF7DBFD2846F1
:102E8000FFF7EAFDDF20FFF7D5FD4046FFF7E4FD41
:102E9000C420FFF7CFFD8F20FFF7DEFDC620FFF730
:102EA000C9FD2046FFF7D8FDE220FFF7D5FDFFF76B
:102EB000D3FDFFF7D1FDBF20FFF7BCFDAA20FFF730
:102EC000CBFDB020FFF7B6FD0D20FFF7C5FD204676
:102ED000FFF7C2FD0D20FFF7BFFD2046FFF7BCFD49
:102EE0001120FFF7B9FD2046FFF7B6FD1920FFF7C7
:102EF000B3FD2046FFF7B0FD2120FFF7ADFD2046D2
:102F0000FFF7AAFD2D20FFF7A7FD2046FFF7A4FD40
:102F10003D20FFF7A1FD2046FFF79EFD5D20FFF756
:102F20009BFD2046FFF798FD5D20FFF795FD2046AD
:102F3000FFF792FDB120FFF77DFD8020FFF78CFDAC
:102F40002046FFF789FD8B20FFF786FD2046FFF71F
:102F500083FD9620FFF780FD2046FFF77DFDB22020
:102F6000FFF768FD2046FFF777FDFFF775FD0220AC
:102F7000FFF772FD2046FFF76FFD3846FFF76CFD47
:102F80002046FFF769FDB320FFF754FD2046FFF709
:102F900063FDFFF761FDFFF75FFDFFF75DFDFFF7E5
:102FA0005BFDFFF759FDFFF757FDFFF755FDFFF7F5
:102FB00053FDFFF751FDFFF74FFDFFF74DFDFFF705
:102FC0004BFDFFF749FDFFF747FDFFF745FDFFF715
:102FD00043FDFFF741FDFFF73FFDFFF73DFDFFF725
:102FE0003BFDFFF739FDFFF737FDFFF735FDB42057
:102FF000FFF720FD8B20FFF72FFD2046FFF72CFD6C
:103000009620FFF729FD2046FFF726FDA120FFF7B8
:1030100023FD2046FFF720FDB520FFF70BFD022022
:10302000FFF71AFD2046FFF717FD3846FFF714FD9E
:103030002046FFF711FD0420FFF70EFD2046FFF7A5
:103040000BFDB620FFF7F6FC2046FFF705FDFFF766
:1030500003FDB720FFF7EEFC2046FFF7FDFCFFF76E
:10306000FBFC3F20FFF7F8FC2046FFF7F5FC5E2055
:10307000FFF7F2FC2046FFF7EFFC6420FFF7ECFCC3
:103080002046FFF7E9FC8C20FFF7E6FC2046FFF71F
:10309000E3FCAC20FFF7E0FC2046FFF7DDFCDC2082
:1030A000FFF7DAFC2046FFF7D7FC7020FFF7D4FCCF
:1030B0002046FFF7D1FC9020FFF7CEFC2046FFF71B
:1030C000CBFCEB20FFF7C8FC2046FFF7C5FCDC205B
:1030D000FFF7C2FC2046FFF7BFFCB820FFF7AAFCB1
:1030E0002046FFF7B9FCFFF7B7FCFFF7B5FCFFF789
:1030F000B3FCFFF7B1FCFFF7AFFCFFF7ADFCFFF748
:10310000ABFCBA20FFF796FC2420FFF7A5FC204675
:10311000FFF7A2FCFFF7A0FCFFF79EFCC120FFF722
:1031200089FC2020FFF798FC2046FFF795FC5420EF
:10313000FFF792FC2046FFF78FFCFF20FFF78CFC87
:103140002046FFF789FCC220FFF774FC0A20FFF736
:1031500083FC2046FFF780FC0420FFF77DFC20461F
:10316000FFF77AFCC320FFF765FC3046FFF774FCDD
:103170002046FFF771FC3A20FFF76EFC2046FFF770
:103180006BFC3920FFF768FC2046FFF765FC372011
:10319000FFF762FC2046FFF75FFC3046FFF75CFC60
:1031A0002046FFF759FC3620FFF756FC2046FFF774
:1031B00053FC3220FFF750FC2046FFF74DFC2F2038
:1031C000FFF74AFC2046FFF747FC2C20FFF744FCA2
:1031D0002046FFF741FC2920FFF73EFC2046FFF781
:1031E0003BFC2620FFF738FC2046FFF735FC242067
:1031F000FFF732FC2046FFF72FFC2420FFF72CFCC2
:103200002046FFF729FC2320FFF726FC2046FFF786
:1032100023FC3046FFF720FC2046FFF71DFC36203C
:10322000FFF71AFC2046FFF717FC3220FFF714FCCB
:103230002046FFF711FC2F20FFF70EFC2046FFF77A
:103240000BFC2C20FFF708FC2046FFF705FC29208B
:10325000FFF702FC2046FFF7FFFB2620FFF7FCFBF1
:103260002046FFF7F9FB2420FFF7F6FB2046FFF787
:10327000F3FB2420FFF7F0FB2046FFF7EDFB2320B4
:10328000FFF7EAFB2046FFF7E7FBC420FFF7D2FB7E
:103290006220FFF7E1FB2046FFF7DEFB0520FFF78A
:1032A000DBFB2046FFF7D8FB8420FFF7D5FB204649
:1032B000FFF7D2FBF020FFF7CFFB2046FFF7CCFB58
:1032C0001820FFF7C9FB2046FFF7C6FBA420FFF735
:1032D000C3FB2046FFF7C0FB1820FFF7BDFB2046CD
:1032E000FFF7BAFB5020FFF7B7FB2046FFF7B4FB10
:1032F0000C20FFF7B1FB2046FFF7AEFB1720FFF7CE
:10330000ABFB2046FFF7A8FB9520FFF7A5FB204667
:10331000FFF7A2FBF320FFF79FFB2046FFF79CFB84
:10332000E620FFF799FB2046FFF796FBC520FFF745
:1033300081FB3220FFF790FB2046FFF78DFB4420F6
:10334000FFF78AFB2046FFF787FB6520FFF784FB2A
:103350002046FFF781FB7620FFF77EFB2046FFF734
:103360007BFB8820FFF778FB2046FFF775FBC62024
:10337000FFF760FB2020FFF76FFB2046FFF76CFB99
:103380001720FFF769FB2046FFF766FB2846FFF78B
:1033900063FB2046FFF760FBC720FFF74BFB20468F
:1033A000FFF75AFBFFF758FBFFF756FBFFF754FBFD
:1033B000C820FFF73FFB2046FFF74EFBFFF74CFB13
:1033C000FFF74AFBFFF748FBC920FFF733FB204616
:1033D000FFF742FBFFF740FBFFF73EFBFFF73CFB2D
:1033E000FFF73AFBFFF738FBFFF736FBFFF734FB3D
:1033F000FFF732FBFFF730FBFFF72EFBFFF72CFB4D
:10340000FFF72AFBFFF728FBFFF726FBFFF724FB5C
:10341000E020FFF70FFB1620FFF71EFB2046FFF70B
:103420001BFB1C20FFF718FB2046FFF715FB212094
:10343000FFF712FB2046FFF70FFB3620FFF70CFBD0
:103440002046FFF709FB4620FFF706FB2046FFF763
:1034500003FB5220FFF700FB2046FFF7FDFA642034
:10346000FFF7FAFA2046FFF7F7FA7A20FFF7F4FAA7
:103470002046FFF7F1FA8B20FFF7EEFA2046FFF720
:10348000EBFA9920FFF7E8FA2046FFF7E5FAA820C3
:10349000FFF7E2FA2046FFF7DFFAB920FFF7DCFA80
:1034A0002046FFF7D9FAC420FFF7D6FA2046FFF7E7
:1034B000D3FACA20FFF7D0FA2046FFF7CDFAD22080
:1034C000FFF7CAFA2046FFF7C7FAD920FFF7C4FA78
:1034D0002046FFF7C1FAE020FFF7BEFA2046FFF7CB
:1034E000BBFAF320FFF7B8FA2046FFF7B5FAE12060
:1034F000FFF7A0FA1620FFF7AFFA2046FFF7ACFA65
:103500001C20FFF7A9FA2046FFF7A6FA2220FFF7B2
:10351000A3FA2046FFF7A0FA3620FFF79DFA2046CF
:10352000FFF79AFA4520FFF797FA2046FFF794FA3B
:103530005220FFF791FA2046FFF78EFA6420FFF73A
:103540008BFA2046FFF788FA7A20FFF785FA2046A3
:10355000FFF782FA8B20FFF77FFA2046FFF77CFA0D
:103560009920FFF779FA2046FFF776FAA820FFF7AF
:1035700073FA2046FFF770FAB920FFF76DFA20467C
:10358000FFF76AFAC420FFF767FA2046FFF764FAEC
:10359000CA20FFF761FA2046FFF75EFAD220FFF754
:1035A0005BFA2046FFF758FAD820FFF755FA204675
:1035B000FFF752FAE020FFF74FFA2046FFF74CFAE8
:1035C000F320FFF749FA2046FFF746FAE220FFF71B
:1035D00031FA0520FFF740FA2046FFF73DFA0B20AD
:1035E000FFF73AFA2046FFF737FA1B20FFF734FAC5
:1035F0002046FFF731FA3420FFF72EFA2046FFF776
:103600002BFA4420FFF728FA2046FFF725FA4F202F
:10361000FFF722FA2046FFF71FFA6120FFF71CFA96
:103620002046FFF719FA7920FFF716FA2046FFF730
:1036300013FA8820FFF710FA2046FFF70DFA9720BB
:10364000FFF70AFA2046FFF707FAA620FFF704FA69
:103650002046FFF701FAB720FFF7FEF92046FFF7F3
:10366000FBF9C220FFF7F8F92046FFF7F5F9C7206C
:10367000FFF7F2F92046FFF7EFF9D120FFF7ECF959
:103680002046FFF7E9F9D620FFF7E6F92046FFF7D5
:10369000E3F9DD20FFF7E0F92046FFF7DDF9F3203D
:1036A000FFF7DAF92046FFF7D7F9E320FFF7C2F971
:1036B0000520FFF7D1F92046FFF7CEF90A20FFF7E2
:1036C000CBF92046FFF7C8F91C20FFF7C5F92046C3
:1036D000FFF7C2F93320FFF7BFF92046FFF7BCF927
:1036E0004420FFF7B9F92046FFF7B6F95020FFF75D
:1036F000B3F92046FFF7B0F96220FFF7ADF9204695
:10370000FFF7AAF97820FFF7A7F92046FFF7A4F9F9
:103710008820FFF7A1F92046FFF79EF99720FFF7D1
:103720009BF92046FFF798F9A620FFF795F9204668
:10373000FFF792F9B720FFF78FF92046FFF78CF9D2
:10374000C220FFF789F92046FFF786F9C720FFF767
:1037500083F92046FFF780F9D120FFF77DF9204655
:10376000FFF77AF9D520FFF777F92046FFF774F9CC
:10377000DD20FFF771F92046FFF76EF9F320FFF720
:103780006BF92046FFF768F9E420FFF753F9284664
:10379000FFF762F92046FFF75FF92846FFF75CF96B
:1037A0002046FFF759F90220FFF756F92046FFF7A8
:1037B00053F92A20FFF750F92046FFF74DF930461C
:1037C000FFF74AF92046FFF747F94B20FFF744F986
:1037D0002046FFF741F95D20FFF73EF92046FFF74D
:1037E0003BF97420FFF738F92046FFF735F98420BC
:1037F000FFF732F92046FFF72FF99320FFF72CF956
:103800002046FFF729F9A220FFF726F92046FFF707
:1038100023F9B320FFF720F92046FFF71DF9BE205A
:10382000FFF71AF92046FFF717F9C420FFF714F93C
:103830002046FFF711F9CD20FFF70EF92046FFF7DC
:103840000BF9D320FFF708F92046FFF705F9DD2033
:10385000FFF702F92046FFF7FFF8F320FFF7FCF827
:103860002046FFF7F9F8E520FFF7E4F82046FFF7D8
:10387000F3F8FFF7F1F8FFF7EFF8FFF7EDF80220A4
:10388000FFF7EAF82046FFF7E7F82920FFF7E4F80A
:103890002046FFF7E1F83046FFF7DEF82046FFF755
:1038A000DBF84B20FFF7D8F82046FFF7D5F85D206E
:1038B000FFF7D2F82046FFF7CFF87420FFF7CCF8D7
:1038C0002046FFF7C9F88420FFF7C6F82046FFF727
:1038D000C3F89320FFF7C0F82046FFF7BDF8A220F9
:1038E000FFF7BAF82046FFF7B7F8B320FFF7B4F8B0
:1038F0002046FFF7B1F8BE20FFF7AEF82046FFF7ED
:10390000ABF8C420FFF7A8F82046FFF7A5F8CD20B4
:10391000FFF7A2F82046FFF79FF8D320FFF79CF8A7
:103920002046FFF799F8DC20FFF796F82046FFF7CE
:1039300093F8F320FFF790F82046FFF78DF8E62084
:10394000FFF778F81120FFF787F82046FFF784F893
:103950003420FFF781F82046FFF77EF85620FFF766
:103960007BF82046FFF778F87620FFF775F82046B9
:10397000FFF772F87720FFF76FF82046FFF76CF833
:103980006620FFF769F82046FFF766F88820FFF702
:1039900063F82046FFF760F89920FFF75DF82046AE
:1039A000FFF75AF8BB20FFF757F82046FFF754F807
:1039B0009920FFF751F82046FFF74EF86620FFF7F1
:1039C0004BF82046FFF748F85520FFF745F820460A
:1039D000FFF742F85520FFF73FF82046FFF73CF885
:1039E0004520FFF739F82046FFF736F84320FFF768
:1039F00033F82046FFF730F84420FFF72DF8204633
:103A0000FFF72AF8E720FFF715F83220FFF724F830
:103A10002046FFF721F85520FFF71EF82046FFF754
:103A20001BF87620FFF718F82046FFF715F86620F8
:103A3000FFF712F82046FFF70FF86720FFF70CF8A2
:103A40002046FFF709F86720FFF706F82046FFF742
:103A500003F88720FFF700F82046FEF7FDFF9920C6
:103A6000FEF7FAFF2046FEF7F7FFBB20FEF7F4FF54
:103A70002046FEF7F1FF9920FEF7EEFF2046FEF705
:103A8000EBFF7720FEF7E8FF2046FEF7E5FF442036
:103A9000FEF7E2FF2046FEF7DFFF5620FEF7DCFFD1
:103AA0002046FEF7D9FF2320FEF7D6FF2046FEF77B
:103AB000D3FF3320FEF7D0FF2046FEF7CDFF452091
:103AC000FEF7CAFF2046FEF7C7FFE820FEF7B2FF69
:103AD0002046FEF7C1FFFEF7BFFF9920FEF7BCFFAF
:103AE0002046FEF7B9FF8720FEF7B6FF2046FEF717
:103AF000B3FF8820FEF7B0FF2046FEF7ADFF77202A
:103B0000FEF7AAFF2046FEF7A7FF6620FEF7A4FFF8
:103B10002046FEF7A1FF8820FEF79EFF2046FEF715
:103B20009BFFAA20FEF798FF2046FEF795FFBB20DB
:103B3000FEF792FF2046FEF78FFF9920FEF78CFFDD
:103B40002046FEF789FF6620FEF786FF2046FEF737
:103B500083FF5520FEF780FF2046FEF77DFF5520AE
:103B6000FEF77AFF2046FEF777FF4420FEF774FF4A
:103B70002046FEF771FF4420FEF76EFF2046FEF759
:103B80006BFF5520FEF768FF2046FEF765FFE92032
:103B9000FEF750FFAA20FEF75FFF2046FEF75CFF0E
:103BA000FEF75AFFFEF758FFFEF744FFAA20FEF784
:103BB00053FFCF20FEF73EFF2046FEF74DFFFEF7F6
:103BC0004BFFFEF749FFFEF747FFFEF745FFFEF705
:103BD00043FFFEF741FFFEF73FFFFEF73DFFFEF715
:103BE0003BFFFEF739FFFEF737FFFEF735FFFEF725
:103BF00033FFFEF731FFFEF72FFFFEF72DFFF0201A
:103C0000FEF718FF2046FEF727FF5020FEF724FF9F
:103C10002046FEF721FFFEF71FFFFEF71DFFF320F2
:103C2000FEF708FF2046FEF717FFF920FEF702FF18
:103C30000620FEF711FF4046FEF70EFF2920FEF793
:103C40000BFF2046FEF708FF3A20FEF7F3FE552053
:103C5000FEF702FF1120FEF7EDFE6420FDF7E2F80B
:103C60002920FEF7E7FE3520FEF7E4FE2046FEF7AA
:103C7000F3FE5120FEF7DEFEFF20FEF7EDFE53209F
:103C8000FEF7D8FE2C20FEF7E7FE5520FEF7D2FE09
:103C90008220FEF7E1FE2C20FEF7CCFEB9F80420CE
:103CA00047F296739A420BD047F289739A4207D033
:103CB00045F210339A4203D045F210539A4216D17E
:103CC000124B596821F00F015960596821F4706155
:103CD0005960596841F00301596047F289718A427D
:103CE0005A680CBF42F4806242F400725A600020AD
:103CF000FEF762FF064B0122C3F8B0224FF6FF70B9
:103D0000FEF7D8FF15B0BDE8F08300BF000100A0AA
:103D10000080414210B504460420FDF7FDF8014B38
:103D20001C6010BDC80D00200B4B70B54FF0E02497
:103D30001B686569A16958430023A2699142FCD0C0
:103D400095BFAE1A5B189B199B1A98BF5B188342EC
:103D500000D370BD1146F0E7C80D00200220FFF728
:103D6000E3BF000010B5A82086B0FFF7D3FF002303
:103D70000093104B104C1A6B42F002021A631B6B3B
:103D800003F0020300934FF40042009B0123CDE9AE
:103D90000123039301A9032320460493FDF76AFA44
:103DA0004FF4805301A920460193FDF763FA06B052
:103DB00010BD00BF003802400004024038B50D4B72
:103DC0000D4C1A6822F040721A601A6842F0807234
:103DD0001A600123C4F8B0321E20C4F8BC3200259A
:103DE000FFF7A2FFC4F8B052FFF7B8FFC4F8BC5207
:103DF00038BD00BF000402400080404238B50C4B83
:103E00000C4C1A6822F040721A601A68012542F0C0
:103E100080721A601E20C4F8BC52FFF785FF002391
:103E2000C4F8B032FFF79AFFC4F8B05238BD00BFF3
:103E3000000402400080404238B5104B104D1A6813
:103E400022F040721A601A681A600123C5F8B03275
:103E5000C5F8BC32FFF782FFFB24D5F8300210B959
:103E6000C5F8BC0206E0013C14F0FF0403D1FFF7E3
:103E7000C5FF012038BDFFF771FFEEE700040240E7
:103E80000080404238B50D4C0D4B0025C4F8BC52A3
:103E90001A6822F040721A601A6842F080721A6042
:103EA000FFF75CFFC4F8B052FFF758FF0123C4F8D6
:103EB000BC32FFF753FFC4F8BC5238BD008040420B
:103EC0000004024070B50D4C0D4B0025C4F8BC52E7
:103ED0001A6822F040721A601A6842F080721A6002
:103EE0000126FFF73BFFC4F8B062FFF737FFC4F8C5
:103EF000BC62FFF733FFC4F8BC5270BD0080404283
:103F000000040240144B1A6822F040722DE9F0417F
:103F10001A601A68114E42F0807200271A60C6F8C3
:103F2000BC720446FFF71AFF08254FF00108E309A9
:103F3000C6F8B032FFF712FFC6F8BC82FFF70EFFDB
:103F4000013DC6F8BC72FFF709FF640015F0FF05DC
:103F5000E4B2ECD1BDE8F0810004024000804042B0
:103F60002DE9F843174B184F1A6822F040721A6077
:103F70001A681A6006461E20FFF7D6FE00240825A0
:103F8000A1464FF00108C7F8BC92FFF7E7FEC7F85B
:103F9000BC82FFF7E3FED7F830326400E4B20BB125
:103FA0000134E4B2013DFFF7D9FE15F0FF05EAD177
:103FB00026B9FFF787FF2046BDE8F883FFF762FFC9
:103FC000F9E700BF000402400080404270B50C4693
:103FD00016460546FFF7F2FE2820FFF793FFFFF78E
:103FE0002BFF280AFFF78EFFFFF726FFE8B2FFF747
:103FF00089FFFFF721FF2644B44201D1002508E0E4
:1040000014F8010BFFF77EFFFFF716FF05460028A7
:10401000F2D0FFF7F3FE284670BDF8B515460E4600
:104020000446FFF7CBFE2820FFF76CFFFFF704FFE5
:10403000200AFFF767FFFFF7FFFEE0B2FFF762FF1E
:10404000FFF7FAFEFFF7BAFE2920FFF75BFFFFF745
:10405000F3FE00246F1EAC4203D1BDE8F840FFF729
:10406000CDBE381B18BF0120FFF77AFF3055013451
:10407000F1E70000F0B53A4B3A4A9B793A4E3B489B
:1040800003F0010389B063F07F03002582F830302C
:10409000374B009555601A6B42F002021A631B6B96
:1040A00003F0020300930124009B03274FF4005305
:1040B00003A9CDE90335CDE90547FDF7DBF84FF45A
:1040C000804303A92948CDE90334FDF7D3F8FFF76E
:1040D00049FEC6F8B8520A20FCF7A4FEC6F8B8425A
:1040E0000A20FCF79FFE022603A92048CDE90557C8
:1040F000CDE90364FDF7BEF86420FCF793FE0422CB
:104100000DEB020148F24010FFF787FF01A91948A3
:104110008DF8085028F01CFE174901A8FCF758F844
:104120000546D8B9224601A948F240008DF804603E
:10413000FFF74CFF224601A948F25000FFF76DFF40
:104140000A20FCF76FFE224601A948F240008DF8D4
:104150000450FFF73BFF284609B0F0BD2046FBE7BF
:10416000680D002010000020008040420004024042
:10417000003802402BDF020837DF020813B50122A6
:104180000DF1070148F24E10FFF747FF9DF8073089
:104190000A4C03F00F0384F82130012200230DF1B3
:1041A000070148F24E108DF80730FFF70FFF94F823
:1041B0002100003818BF012002B010BD10000020FF
:1041C00013B50B4C94F8213073B104220DEB0201AE
:1041D00048F25010FFF721FFBDF80430A381BDF86D
:1041E0000630E38202B010BD4FF6FF73A381F8E7FB
:1041F0001000002000F108034FF0FF32C0E9022355
:10420000436003610023036070470023036170472C
:1042100030B50C68631C0AD103695A684A60916022
:104220008B605960036808610133036030BD00F1A1
:104230000802134652681568A542FAD9EDE7D0E99D
:10424000011203698A6051605968814208BF5A604F
:1042500000220261186801381860704710B50446E2
:1042600001F0B4F8A46B01F0C1F8B4FA84F040098D
:1042700010BD034610B41A6C08466AB1DC68996830
:1042800014448C4228BF1968DC6028BFD960D96803
:104290005DF8044B28F075BF5DF8044B704770B5AE
:1042A000044601F093F894F8455004F124066DB2E9
:1042B000002D14DCFF2384F8453001F097F801F05D
:1042C00085F894F8445004F110066DB2002D12DC0C
:1042D000FF2384F84430BDE8704001F087B8636A7A
:1042E000002BE7D0304600F03DFD08B100F0C8FDDE
:1042F000013D6DB2DCE72369002BE9D0304600F0C8
:1043000031FD08B100F0BCFD013D6DB2DEE770B5D6
:104310000E46044610B3C06B00B3236CA3FB0035FC
:10432000DDB901F053F8D4E90F31226862604B43E4
:10433000D0185B1A1A44FF23A563A06084F84430A8
:10434000E26084F8453056B104F11000FFF752FFE7
:1043500004F12400FFF74EFF12E0002070BD236936
:1043600073B104F1100000F0FDFC48B14FF0E02300
:104370004FF08052C3F8042DBFF34F8FBFF36F8F00
:1043800001F034F80120E9E738B50D461C46A8B124
:1043900013B11AB121B90C46204638BD81B91A466D
:1043A0000121C4E90F0584F8461022602046FFF77A
:1043B000AEFF9DF8103084F84C30EDE70446EBE793
:1043C0001446E9E72DE9FF41002704460E46019215
:1043D000B84600F0FBFFA56BE5B131462046FFF77C
:1043E00048FF2369013DA56373B104F1100000F09B
:1043F000B9FC48B14FF0E0234FF08052C3F8042DD0
:10440000BFF34F8FBFF36F8F00F0F0FF012004B0B8
:10441000BDE8F081019B1BB900F0E8FF0020F6E742
:1044200017B902A800F0F8FC00F0E0FF00F0C2FAB3
:1044300000F0CCFF94F84430FF2B08BF84F8448090
:1044400094F84530FF2B08BF84F8458000F0CEFF7C
:1044500001A902A800F0ECFC00BB2046FFF7FEFE1D
:10446000B0B1019904F1240000F04CFC2046FFF7A4
:1044700016FF00F059FB48B94FF0E0234FF080528F
:10448000C3F8042DBFF34F8FBFF36F8F0127A0E751
:104490002046FFF704FF00F047FBF7E72046FFF751
:1044A000FEFE00F041FB2046FFF7D8FE0028EDD0CD
:1044B000B4E7000070B5B9B10C4A00231C4615469C
:1044C0005668864204D105EBC403C3E900100BE033
:1044D0001BB91668002E08BF13460134042C02F1E4
:1044E0000802EDD1002BF0D170BD00BFCC0D002033
:1044F00070B504460D46164600F068FF94F8443047
:10450000FF2B04BF002384F8443094F84530FF2B80
:1045100004BF002384F8453000F068FFA36B2BB97B
:104520003246294604F1240000F0FCFB2046BDE899
:104530007040FFF7B4BE000007B5094B01A91B8806
:10454000ADF80430002028F013FA00214FF0FF30BE
:1045500026F05AFFFCF73AF90A2000F089FBF4E74D
:10456000E4DE020808B5084C084E00252368B3F5C0
:10457000FA7F04D3042130462560FCF75EFF0A2051
:1045800000F076FBF2E700BF14300120000002408B
:1045900000B58FB003F0AAFF01F024FA01F064FA2D
:1045A000684600F0AEFF684600F0AAFF044C1DF01C
:1045B00077F8204628F034FC012000F059FBF6E79C
:1045C0003CDF020873B50E4C0E4E65683146284636
:1045D000FBF7FEFD183420B902B0BDE8704000F0D2
:1045E0009FB954F8043C019354F8083C009354E9F3
:1045F000042354F8180C294600F064F9E5E700BFDD
:104600004400002042DF020807494FF0E0234FF04A
:10461000805208680128FDD9C3F8042DBFF34F8FDD
:10462000BFF36F8FF5E700BF780E00202DE9F04152
:10463000044600F0CBFE324B324E1A68324F013244
:104640001A603568002D4FD134601B68012B1CD1D6
:10465000B84640460135FFF7CDFD052D08F1140899
:10466000F7D1DFF8C880294D4046FFF7C3FD284643
:10467000FFF7C0FD2648FFF7BDFD2648FFF7BAFD4E
:10468000254BC3F80080254B1D60254A1368013374
:104690001360244AA3641168E36A8B4288BF1360E5
:1046A00014225343F918201D4A68A2609568E560FA
:1046B00068609060FA5861610132FA5000F096FE2D
:1046C000194B1B6873B13368DA6AE36A9A4209D2FC
:1046D0004FF0E0234FF08052C3F8042DBFF34F8F0B
:1046E000BFF36F8FBDE8F0810F4B1A68E36A002AB1
:1046F000CBD13268D26A9A4298BF3460C5E700BF16
:104700001C0E0020DC0E0020780E0020500E002031
:10471000340E0020200E00204C0E0020480E0020F9
:10472000000E0020140E0020100E0020640E002049
:104730002DE9F8431D4B1E4C1D681E4BD3F800801D
:104740001D4B0646D3F80090206804300F46FFF753
:1047500076FD731C14D19FB1184B21685A688A608A
:1047600021689068C8602168043141602168043183
:104770009160226853611A6801321A60BDE8F883BB
:1047800023682168AD195D6001F1040104D3484636
:10479000BDE8F843FFF73CBD4046FFF739FD084B45
:1047A0001A68AA4288BF1D60E8E700BF180E002003
:1047B000DC0E00204C0E0020480E0020200E0020B1
:1047C000FC0D0020064A13681968064B19B94FF012
:1047D000FF321A6070471268D2681268F9E700BFAA
:1047E0004C0E0020FC0D00202DE9F843DDE9098482
:1047F0004FEA82094A4606460D46206BA5211F4610
:1048000028F03CFC236BA9F104094B4423F0070971
:10481000C4F844906DB16B1E04F133020F3513F8E8
:10482000011F02F8011F09B1AB42F8D1002384F83F
:104830004330089D042D28BF0425E5622565201D11
:10484000FFF7E3FCC5F1050504F11800FFF7DDFCF7
:104850002461A56164623A463146484600F090FD05
:104860002060B8F1000F01D0C8F80040BDE8F8831F
:104870002DE9F04387B0DDE90F940E46002105468F
:10488000174698460591CCB1B9F1000F16D06022B9
:10489000204628F0F3FB022384F85D3005ABC4F812
:1048A000309001930E9B00932846029443463A466B
:1048B0003146FFF799FF2046FFF7B8FE059807B08D
:1048C000BDE8F0832DE9F043074685B090008846A7
:1048D0001646994600F060FC0546F0B1602000F0F5
:1048E0005BFC0446B0B16022002128F0C7FB0D9BA1
:1048F000256301930C9B009332464B464146384654
:104900000294FFF771FF2046FFF790FE012005B0EB
:10491000BDE8F083284600F0BBFC4FF0FF30F6E71F
:1049200030B500238DB0CDE90833CDE90A331B4AF9
:1049300008AB1D4612F8014B03F8014B002CF9D1CE
:1049400007AA06A905A8CDE90544FBF783FF059B47
:104950000293069B079A1248CDE900432946234655
:10496000FFF786FFA8B100F0EDFB012811D14FF051
:10497000200383F31188BFF36F8FBFF34F8F094B71
:104980004FF0FF321A60084B1860084B1C6000F0B3
:104990008FFD074B1B680DB030BD00BF62DF020802
:1049A00009460008FC0D0020100E0020180E002003
:1049B000A4000020024A136801331360704700BF4F
:1049C000F80D0020014B1868704700BF180E00203A
:1049D0002DE9F84F494B1B68002B40F08880484B6D
:1049E0001C6801341C605CB9464A474B1168186862
:1049F0001060464A1960136801331360FFF7E2FE46
:104A0000434D2B689C424FF0000006D2414B1B687F
:104A1000002B18BF0120BDE8F88F3A4EDFF804C123
:104A20003D49074633681B681BB94FF0FF332B60C5
:104A3000ECE73368DB68DB685A68944201D22A608D
:104A4000E4E7D3E90229D3F81480C2F80890C9F842
:104A50000420D8F8042003F1040E7245D8F8002091
:104A600008BFC8F80490013A5F61C8F80020D3F885
:104A70002880B8F1000F13D0D3E90729C2F80890B5
:104A8000C9F80420D8F8042003F1180A5245D8F8D0
:104A9000002008BFC8F80490013A9F62C8F80020BF
:104AA000DA6ADCF8008042454FF0140808FB02F88F
:104AB00001EB080A88BFCCF80020DAF80490C3F8AC
:104AC0000890D9F808B0C3F80CB0CBF804E0C9F8E6
:104AD00008E0C3F814A051F80830013341F8083059
:104AE0000E4B1B68DB6A9A4288BF01209AE70C4A8A
:104AF00013680133136000208DE700BFF80D00201C
:104B0000180E00204C0E0020480E0020040E00203D
:104B1000FC0D0020080E0020780E0020DC0E002086
:104B20000C0E0020140E00202DE9F84F00F04EFC72
:104B3000474B1A68013A1A601B682BB1002400F039
:104B400055FC2046BDE8F88F424A1268002AF5D08D
:104B50004148424C424A434E434F14254FF0010C0A
:104B600051E0C368DB68D3E90718D3F828E0C1F83F
:104B70000880C8F80410DEF8041003F1180949454C
:104B80004FF0000108BFCEF804809962DEF80010F3
:104B90000139CEF80010D3E90218D3F814E0C1F8B7
:104BA0000880C8F80410DEF8041003F10409494530
:104BB000DEF8001008BFCEF804800139CEF80010EE
:104BC000D3F82CE0216805FB0EF802EB080A8E45AD
:104BD000DAF804109960D1F808B0C3F80CB0CBF83B
:104BE0000490C1F8089052F8081088BFC4F800E09B
:104BF0000131C3F814A042F808103168C96A8E4523
:104C000001D9C7F800C001680029AAD10BB1FFF78C
:104C1000D9FD164D2C6844B1134E0127FFF7D8FE7D
:104C200000B13760013CF9D12C600F4B1B68002BA1
:104C300084D00C4B1B684FF0E0234FF08052C3F838
:104C4000042DBFF34F8FBFF36F8F012477E700BFB1
:104C5000F80D00201C0E0020340E0020140E002041
:104C6000780E0020DC0E0020080E00200C0E002024
:104C700008B550B94FF0E0234FF08052C3F8042D2F
:104C8000BFF34F8FBFF36F8F08BD0021FFF792FE78
:104C9000FFF74EFDFFF748FF0028EBD0F4E70000D8
:104CA000134B1A68134B70B512B101221A6070BD14
:104CB000114C1A602168114A142606FB01F398185A
:104CC000D55895B1456808336D68456013449D42D9
:104CD00004BFC3684360142303FB01225368DA68EE
:104CE000074B1A6021601B68E1E70139E5E700BF67
:104CF000F80D0020080E0020140E0020780E002071
:104D0000DC0E002010B5064B0C4619681831FFF771
:104D10007FFA20460121BDE81040FFF709BD00BF22
:104D2000DC0E00200E4B70B41D684468EC611D68F9
:104D3000A6682E621D68183575601D681B681835D9
:104D4000A56098620368002A03F10103036070BC48
:104D50000CBF08464FF0FF301146FFF7E9BC00BF1B
:104D6000DC0E0020C368DB68D3E907019A6AF0B55E
:104D700081604860506803F11804A04208BF516088
:104D8000002199621168013911601D4AD96A1268BF
:104D9000002A29D1D3E902405A69A06044605468CE
:104DA0001D1DAC4208BF5060106801381060154AE4
:104DB0001068814288BF1160134814224A43861844
:104DC00074689C60A768DF607D60A5605E61835841
:104DD000013383500D4B1B68DB6A994283BF0C4B38
:104DE000012018600020F0BD0A4A5068D86185682B
:104DF0001D626C6084609A62136801331360E9E796
:104E0000F80D0020140E0020780E0020DC0E00208B
:104E1000080E0020340E0020034B1B680360034B78
:104E20001B684360704700BF040E0020180E00206E
:104E300070B50D46044600F0C9FA0F4B19682B688F
:104E40005A1C17D00D48266800686268864208D050
:104E50008A4206D800232B60012400F0C7FA2046BE
:104E600070BD881A8342F5D95B1A13442B60204623
:104E7000FFF7D2FF0024F0E7180E0020040E0020F8
:104E8000014B01221A607047080E0020914208B5BC
:104E9000416000610AD8D21A83699A420DD2084B48
:104EA000011D1868FFF7B4F9002008BD9A4201D22D
:104EB000994202D2034B011DF3E70120F5E700BF41
:104EC000BC100020C010002070B504460D461646E8
:104ED000A1692B46324629442046FFF7D7FF00B987
:104EE00070BDA36920461D44236A9847F0E700007F
:104EF0000E4B1B68DB6870B5DC680546201D0E464E
:104F0000FFF79DF994F828305A0709D5324629460B
:104F10002046FFF7D9FF236A2046BDE870401847B6
:104F200023F0010384F82830F5E700BFC01000200B
:104F3000F8B50F4E0546FFF745FD3368834204463A
:104F400009D90C4F3B681A6852B90B4A116839608D
:104F50001360012300E000232B6034602046F8BD7D
:104F6000DB684FF0FF311868FFF7C2FFEAE700BFC8
:104F7000B0100020C0100020BC1000202DE9F0432C
:104F8000DFF85481524F85B00026D8F80030D3F8AE
:104F90000090B9F1000F39D0DB68D3F800900024FD
:104FA000FFF708FD01A8FFF7C3FF019B0546002B93
:104FB00049D16CBB484531D3FFF7B6FD2946484679
:104FC000FFF796FFCDE9016603963868002201A934
:104FD000FFF7F8F90028D8D0019B002BF5DB039CE4
:104FE000002CF2D0636913B1201DFFF728F9684641
:104FF000FFF79EFF019B013B0546082BE5D8DFE844
:1050000003F02525484F5E2525484F000124C7E7BA
:10501000304B1B681C68B4FA84F464093868224673
:10502000A9EB0501FFF764FAFFF77EFD0028C9D15F
:105030004FF0E0234FF08052C3F8042DBFF34F8FA1
:10504000BFF36F8FBEE7FFF76FFDBBE794F8283023
:10505000A16943F0010384F82830029B02461944F9
:105060002046FFF713FF0028AFD094F828305907E7
:105070000AD5A36902992A4619442046FFF724FF5E
:10508000236A20469847A0E723F0010384F82830DC
:10509000F6E794F8283023F0010384F8283094E7E9
:1050A00094F8283043F0010384F828300299A16174
:1050B0000346024601442046FFF7E8FE85E794F8E0
:1050C00028309A07E7D4204600F0E2F87DE700BFD9
:1050D000B8100020BC100020C0100020F7B5114C03
:1050E00000F074F92568BDB90F4F104E3846FFF730
:1050F00081F83046FFF77EF80D4B0E4A1F600E4BCD
:105100000C211E6020200D4B0095FFF73DF920601B
:1051100010B10B49FFF7CEF903B0BDE8F04000F045
:1051200065B900BFB8100020D8100020C4100020BE
:10513000C0100020300F0020BC100020E00E002026
:1051400067DF020810B588B0FFF7C8FF0E4B18687C
:105150000024B8B107AA06A905A8CDE90544FBF7C4
:1051600085FB059B0293069B019303230093079AFB
:10517000064907482346FFF77BFB064B1860001BD8
:1051800018BF012008B010BDB81000206CDF020865
:105190007D4F0008B4100020F8B5431E0A3363D8D1
:1051A00010F0070300F1080405D0A3F10902A242A0
:1051B0005AD31030C41A304DFFF7FCFB2B68F3B9FB
:1051C0002E4A2F4853071FBFD11D21F0070102F5BA
:1051D0002052531A0CBF4FF420530A461344083B85
:1051E00023F00703002141600260C3E90011991A0E
:1051F000C2E900312B60234B1960234B1960002C4E
:1052000037DD214E3168A14233D31D4A13685868F7
:10521000A04201D21F684FBB2D689D4229D015685E
:10522000D3F800C0C2F800C0001B102805F1080523
:1052300005D91F1978605C6043F804C0176058688E
:105240000A1A104932600C68A24238BF0A60002274
:105250001A600E4A40F00040586013680133136032
:10526000FFF762FC2846F8BD0024A4E71A463B4637
:10527000CDE70025F4E700BFFC1000200811002056
:1052800000110020F4100020F8100020F010002081
:1052900038B5054600283BD050F8043C002B37DADF
:1052A00050F8082C002A33D123F0004340F8043C86
:1052B000A0F10804FFF77EFB164A55F8041C13689A
:1052C0000B441360144B1A461B689C42FBD8506871
:1052D0001518AC4202BF09181446516060682118C5
:1052E0008B4213D10D4909688B4203D059680144A0
:1052F000616019682160A24218BF1460084A1368EF
:1053000001331360BDE83840FFF70EBC1946F1E7E2
:1053100038BD00BFF810002000110020FC10002054
:10532000EC10002082B0002301934FF0200383F3A0
:105330001188BFF36F8FBFF34F8F019B002BFCD001
:1053400002B0704708480068006880F308884FF092
:10535000000080F3148862B661B6BFF34F8FBFF3CD
:105360006F8F00DF00BF000008ED00E0DFF80C00E9
:10537000016841F4700101607047000088ED00E0B1
:105380004FF0807340F8043C074B40F80C3C21F090
:1053900001016FF0020340F8081C40F8202C40F88F
:1053A000243C4438704700BF25530008064B196859
:1053B0000868B0E8F04F80F30988BFF36F8F4FF0B3
:1053C000000080F311887047DC0E00204FF02003AE
:1053D00083F31188BFF36F8FBFF34F8F024A1368B7
:1053E00001331360704700BFA8000020034A136810
:1053F000013B13600BB983F311887047A8000020AC
:10540000EFF30980BFF36F8F144B1A681EF0100F73
:1054100008BF20ED108A20E9F04F10602DE9090047
:105420004FF0200080F31188BFF34F8FBFF36F8FD1
:10543000FFF736FC4FF0000080F3118809BC1968B3
:105440000868B0E8F04F1EF0100F08BFB0EC108AEB
:1054500080F30988BFF36F8F70470000DC0E0020D7
:1054600008B54FF0200383F31188BFF36F8FBFF3AC
:105470004F8FFFF7ADFA28B14FF0E0234FF0805285
:10548000C3F8042D002383F3118808BD4FF0E022F8
:10549000002313619361054B4FF47A711B68B3FBD2
:1054A000F1F3013B536107231361704704000020AF
:1054B00038B54FF0E0240025D4F8203D43F47F03B5
:1054C000C4F8203DD4F8203D43F07F43C4F8203D8C
:1054D000C4F81C5DFFF7DAFF084B1D60FFF746FFBD
:1054E000D4F8343F43F04043C4F8343FFFF72AFF79
:1054F000FFF7D6FBFFF716FF284638BDA8000020AF
:10550000704710B5012304460371037600F07EF85E
:105510006069BDE8104000F08FBC000010B50D4C74
:10552000227864230132B2FBF3F103FB11220A4B10
:105530002270186820B1094B196809B118F0B5FC40
:10554000074B186828B122780649BDE8104021F0C1
:1055500080BC10BD18390020203900201C390020E3
:105560001039002074DF020838B500F051FD1C2806
:1055700019D10D4D2B68B3B10C4B1B689BB1586B07
:1055800088B11EF01BFA0A2303FB00F421462868A9
:105590001CF06AF9064B186828B122460549BDE897
:1055A000384021F056BC38BD14390020083900209D
:1055B0000C39002077DF020838B500F029FD0728F4
:1055C0000FD10D4B186860B10C4C0D4D23784BB1C9
:1055D0001CF040F92B680B49586A21F0FFFB0023AF
:1055E000237038BD1CF03BF92B680749586A21F03D
:1055F000F5FB0123F4E700BF14390020AC000020C4
:105600000839002088DF02088FDF02082DE9F04FFB
:10561000B54BDFF8E4A2186087B00446002002F022
:105620008FFF4FF4F07260614FF4A07103F07BFFC5
:105630006069DFF8F0B2002105F0B1F9606900227D
:10564000FF2107F065F96069002240F2062107F0AA
:105650004FF900221146606907F05FF9606902F0B6
:105660006FFF0A22E0610B2103F024FFC822E069EA
:105670004FF4967103F057FFE069002105F08FF9B0
:10568000E0690022022107F067F942F2BE48E069B2
:105690000022FF2107F05BF9E0690022414607F094
:1056A00046F9E06900220F2107F05BF9E06900226A
:1056B0000A2107F07AF9E0690022FF2107F028F9B2
:1056C000E069002242F6451107F012F90022114666
:1056D000E06907F022F9E56900221146284607F043
:1056E000FDF800221146284607F0FDF80022114679
:1056F000284607F0E9F800221146284607F0E9F8A5
:1057000000221146E069794D07F030F9E06918F0A0
:1057100061FB00231A460921286003F06BFFB422C5
:105720001146286803F0FFFE286818F05FFB4FF46D
:1057300087738722CDE90032064601466423286834
:10574000002218F08BFB0A270F2302970093ADF875
:10575000048028683A460423314618F070FB48F666
:105760005143ADF804300097286802236522314682
:1057700018F058FB0520D5F800901AF01DFB6FF0CB
:1057800009020346314600924846042218F06EFB97
:10579000574B1860286821F015FB564B56491A786C
:1057A000054621F056FB28465449002207F0F3F83D
:1057B00000221146284607F0DEF800231A4605218C
:1057C000284603F017FF4E4BE0691D6021F0FAFAFE
:1057D0004C49054621F002FB28464849002207F0C3
:1057E000DAF8284600224FF0FF3107F0C4F83B46B4
:1057F00028460022022103F0FDFE0022012142483A
:10580000424D1BF01BFF424B186060691EF0FCF814
:10581000206221F0D7FA3F49606221F0DFFA0023CD
:105820001A46606A092103F0E5FE206AF022C821C9
:1058300003F040FE206A3222642103F074FE00234C
:105840003549206A072200F0FDFB206A0022FF2173
:1058500007F05EF8206A0022414607F049F8206A06
:105860000022052107F0A1F8206A00224FF0FF3145
:1058700007F081F82149206A002207F08CF860695E
:1058800022F058FF3A46606301211EF06DF8606B0C
:10589000002205211EF004F8606B40F26112202105
:1058A00003F008FE606B0622FB2103F03CFE0023A0
:1058B0001C221A49606B00F0C5FB606921F082FA76
:1058C0001749286021F08AFA286800224FF0FF313A
:1058D00007F051F828684FF4A572202103F0EAFD83
:1058E0002027002520E000BF0839002020390020B3
:1058F0001C3900201839002074DF02081019030831
:105900001039002095DF02081D5500080C390020D1
:10591000143900208FDF0208B955000869550008C6
:10592000A7DF02083CEC020801350A236B4352460C
:10593000052104A827F07CFA606921F043FA04A944
:10594000064621F04BFA00225946304607F023F86C
:105950000FFA87F900224FF0FF31304607F00BF8BD
:105960004FF4B9724946304603F0A4FD15F0010822
:105970001ED1606902F0E4FD04220646114603F0E0
:10598000D2FD424642F2BE41304606F0B1FF4246E9
:10599000FF21304606F0BCFF424647F6FF71304615
:1059A00007F003F84FF4AF724946304603F082FD2A
:1059B00019370A2DBFB2B7D1606907B0BDE8F04F03
:1059C00004F0E6BD37B50C460092CB888A8849883A
:1059D00005462088FDF786F9284603B0BDE830402B
:1059E00019F0AEBB38B50C4D0C4CFDF7A7F94FF4D0
:1059F000486328460A4A0B4919F0C6FA204619F0AE
:105A00009FFA094B2360094B6361E5602046BDE8BE
:105A1000384019F0C7BA00BF746B00202439002049
:105A200074390020745200204001E001C55900087B
:105A300070B50C46FEF7A2FB084E094D38B1FEF7D3
:105A4000BFFB084B9A89DB8A32802B800120338888
:105A50002380A0732B88638070BD00BF926B0020F1
:105A6000906B00201000002010B5084CFEF702FBE0
:105A7000204619F079FB012323702046044B636014
:105A800019F082FB034B186010BD00BF946B00201F
:105A9000315A0008B46B00200022C9B206F08ABF58
:105AA00009B203F0F0BC09B203F0D6BC38B5054624
:105AB000006806F097FF044600222721006900F0E5
:105AC00083FA60690022282100F07EFA606928B11B
:105AD00094F828309B0701D507F057F894F8283040
